:020000040800F2
:10000000100D0020A10100080F3100084D27000845
:100010000D31000807080008C5380008000000007E
:10002000000000000000000000000000593400083B
:10003000450B000800000000393200085B3400085E
:10004000BB010008BB010008BB010008BB010008A0
:10005000BB010008BB010008BB010008BB01000890
:10006000BB010008BB010008BB010008BB01000880
:10007000BB010008BB010008BB010008BB01000870
:10008000BB010008BB010008BB010008BB01000860
:1000900009080008BB010008BB010008BB010008FB
:1000A000BB010008BB010008BB010008BB01000840
:1000B000BB010008BB010008BB010008BB01000830
:1000C000BB010008BB010008BB010008BB01000820
:1000D000BB0100082D380008BB010008BB01000867
:1000E000BB010008BB010008BB010008BB01000800
:1000F000BB01000811350008BB010008BB01000866
:10010000BB010008BB010008BB010008BB010008DF
:10011000BB010008BB01000805350008BB01000851
:10012000BB010008BB010008BD0A0008BB010008B4
:10013000BB0100080000000000000000BB01000837
:1001400079080008BB010008BB010008BB010008DA
:10015000BB010008BB010008BB010008BB0100088F
:10016000BB010008BB010008BB010008BB0100087F
:10017000BB010008BB0100080000000000000000F7
:10018000BB010008BB010008DFF810D000F0ECFA5A
:10019000004800473D450008AFF30080100D0020E7
:1001A0000648804706480047FEE7FEE7FEE7FEE711
:1001B000FEE7FEE7FEE7FEE7FEE7FEE7F5340008B0
:1001C000890100082DE9F05F0546002092469B4614
:1001D00088460646814640241BE02846414647465D
:1001E000224600F00AFA53465A46C01A914110D3EB
:1001F00011461846224600F0F1F92D1A67EB010866
:100200004F4622460120002100F0E8F917EB0009D3
:100210004E41201EA4F10104DFDC484631462A4647
:100220004346BDE8F09F40EA01039B0703D009E085
:1002300008C9121F08C0042AFAD203E011F8013BD2
:1002400000F8013B521EF9D27047D2B201E000F82B
:10025000012B491EFBD270470022F6E710B513466A
:100260000A4604461946FFF7F0FF204610BD2DE967
:10027000FE4F804681EA0300C00F0C46009021F03B
:10028000004123F00045B8EB0200A94105D24046E9
:10029000214690461C460B46024623F00040104380
:1002A00047D0270DC7F30A00C3F30A510290401A42
:1002B000019040286BDAC3F3130040F4801B0098D0
:1002C000924620B10023D2EB030A63EB0B0B01989B
:1002D0005946C0F14002504600F080F906460D46EE
:1002E00050465946019A00F098F910EB0800614118
:1002F000002487EA115284EAE7731A4340D0009A37
:1003000062B3019A012A4FEA075215DC001B61EB28
:1003100002014FF0004202EA0752CDE90042001C00
:1003200041F5801132462B4600F0CFF903B0BDE80D
:10033000F08F40462146F9E7001B61EB0201001CEB
:1003400041F5801300185B412018A2F5001747EB18
:10035000030140EAD570B6196D4111E06D084FEA0E
:10036000360645EAC0754FEA0752001B61EB0201F1
:10037000001C41F5801149084FEA30000019514135
:1003800032462B4603B0BDE8F04F00F08FB900981D
:10039000012240000023D0EB020263EBE0730098DF
:1003A00021464FEAE074B8EB000061EB0401E9E795
:1003B00083F000435BE781F0004158E72DE9FE4FF1
:1003C00081EA030404F0004421F0004100944FF05E
:1003D000000B23F0004350EA01045ED052EA03040C
:1003E0005BD0C3F30A54C1F30A552C44A4F2F3348E
:1003F0000194A0FB0254C1F3130141F48011C3F333
:10040000130343F4801301FB024400FB034E840AF0
:10041000970A44EA815447EA8357A4FB0768029588
:100420008D0A05FB07854FEA932C04FB0C54270526
:10043000029D4FEA065847EA1637B5EB08056EEB02
:10044000070C870E920E47EA811742EA8312A7FB38
:100450000201B6EB0B0164EB00042B0D43EA0C33F5
:100460005E1844EB1C50DA465146E7FB0201C5F327
:1004700013044FEA0B3343EA14534FEA0432019C4E
:1004800043EA0603A4F10C040294009CCDE900B4F5
:1004900000F01BF903B0BDE8F08F00200146F9E73A
:1004A0002DE9F04D81EA030404F0004B21F00045F2
:1004B00014464FF0000A23F0004150EA050220D014
:1004C00054EA01021DD0C5F30A570246C5F31303CF
:1004D000C1F31300C1F30A5640F4801543F48013AE
:1004E000A7EB0608101BD64608F2FD3873EB050093
:1004F00002D308F1010801E092185B41B8F1000F46
:1005000003DA00200146BDE8F08D00204FF4801191
:10051000064684460EE0171B73EB050705D3121B36
:1005200063EB050306434CEA010C49084FEA30002F
:1005300092185B4150EA0107EDD152EA030012D054
:1005400082EA040083EA0501084305D0101BAB4191
:1005500006D20122002306E000224FF0004302E011
:100560006FF0010253101AEB06004CEB085110EB30
:100570000A0041EB0B01BDE8F04D00F097B800F028
:10058000004230F000400AD0C10D01F56071C0F3A7
:10059000160042EA0151C20840071143704700208B
:1005A0000146704701F0004330B421F0004150EAA9
:1005B000010206D00A0DA2F56072C1F31301002AF0
:1005C00002DC30BC00207047440F44EAC104C10083
:1005D000E01830BC00EBC25000F031B8202A04DB38
:1005E000203A00FA02F1002070479140C2F1200346
:1005F00020FA03F3194390407047202A04DB203A85
:1006000021FA02F00021704721FA02F3D040C2F132
:1006100020029140084319467047202A06DBCB1779
:10062000203A41FA02F043EAE07306E041FA02F3AD
:10063000D040C2F12002914008431946704700297A
:10064000A8BF7047401C490008BF20F00100704758
:1006500010B4B0FA80FC00FA0CF050EA010404BFB8
:1006600010BC704749B1CCF1200421FA04F411FA0E
:100670000CF118BF012121430843A3EB0C01CB1D52
:100680004FEA00614FEA102042BF002010BC7047C3
:1006900000EBC35010440029A4BF10BC7047401C9D
:1006A000490008BF20F0010010BC704710B5141EAF
:1006B00073F1000408DA401C41F1000192185B411B
:1006C0001A4301D120F0010010BD2DE9F04D9246F2
:1006D0009B4611B1B1FA81F202E0B0FA80F2203209
:1006E0009046FFF77BFF04460F4640EA0A0041EAC6
:1006F0000B0153465A46084313D0114653EA0100F2
:1007000019D0C8F140025046FFF777FF05460E4664
:10071000504659464246FFF761FF084305D0012085
:1007200004E020463946BDE8F08D0020054346EA46
:10073000E0762C4337430A986305E40AA0EB0800EF
:100740000022FD0A44EA47540A3002D5002001463F
:10075000E9E7010510196941DDE90845001969411A
:10076000BDE8F04DA2E70000064C074D06E0E0684A
:1007700040F0010394E8070098471034AC42F6D3E8
:10078000FFF706FD404A0008604A00080EB5C10F99
:1007900080EAE0700844CA07002140F233438DE844
:1007A0000E000A460B46FFF790FF03B000BD0EB5E2
:1007B00040F2334102910021CDE900110A460B4677
:1007C000FFF783FF03B000BD70B5C1F30A5201F01B
:1007D00000450024C1F3130140F2FF3341F48011BE
:1007E0009A4201DA002070BD40F233439A42A2F2ED
:1007F000334203DC5242FFF700FF00E090402C43FD
:10080000F1D0404270BDFEE7014800F0C2BB0000DD
:10081000B00000200EB5174A0823D16100211162F3
:100820005162C2E90A1382F83010018802AB090A4A
:100830008DF8001001788DF8011041886A46090A88
:100840008DF8021081788DF803108188090A8DF8DF
:10085000041001798DF80510C188090A8DF8061079
:10086000044980798DF807001C3101F1740000F013
:1008700027FA0EBD20000020014800F08ABB0000CE
:10088000D800002010B50221084800F007FA0748F8
:100890000221283000F002FA044800F091FD0348DC
:1008A000BDE81040283000F08BBD0000B0000020F3
:1008B00010B5044600680C49884206D10B4B002154
:1008C000A3F13402204600F0EAFA09492068884280
:1008D00009D1064B20464433BDE81040A3F1340251
:1008E000002100F0DCBA10BD00640040540000207C
:1008F0000068004010B51C4C9FED1A0A1B4884ED9F
:100900000D0AB0F9A00000EE900A0C20F8EEE00A03
:1009100002F0FEFB84ED0D0AD4ED0C1A94ED0B1AD7
:1009200071EEC10A31EE811A30EE602A71EE001AC2
:1009300070EE800A30EE410ABDEEC22AFDEEE11AE9
:10094000FDEEE00A12EE100ABDEEC00A208011EEA4
:10095000900A608010EE900AA08010EE100AE080ED
:1009600010BD000000000000A8080020E8040020DE
:100970003F4900209FED3F0A4882C8820883488390
:100980004884888208823C48DFED3D0A9FED3D1A8D
:1009900080ED320A9FED390AF2EE021A80ED330A39
:1009A00080ED340A80ED310AC0ED350A80ED361A4B
:1009B0009FED351A00F50C7180ED3D1A80ED3E0A71
:1009C00080ED3F0A80ED3C0A9FED301AC0ED400AF1
:1009D00080ED411AC0ED481A80ED490A80ED4A0ABF
:1009E00080ED470A9FED2A1AC0ED4B0A80ED4C1AA4
:1009F000C0ED531A80ED540A80ED550A80ED520A7D
:100A0000C0ED560A80ED571AC0ED5E1A80ED5F0A00
:100A100080ED600A80ED5D0AC0ED610A80ED621A2A
:100A2000C0ED691A80ED6A0A80ED6B0A80ED680AF4
:100A3000C0ED6C0A80ED6D1AF1EE001AC0ED8A1A55
:100A400080ED8B0AF2EE041AC0ED891AF7EE001A57
:100A5000C0ED951A81EC030A80ED960A80ED970AA5
:100A600080ED940AC0ED980A80ED991A7047000055
:100A7000A8080020CDCC4C3E8002002000000000E1
:100A800000803B4500401C469A99193F00007A4679
:100A900000409C4508488189491C09B2818164292C
:100AA00009DD00214182C18281820182018301210D
:100AB0004183022141847047A8080020014800F0CA
:100AC0000DBD0000D801002001681823CAB2103AF9
:100AD000B2FBF3F2054B6FF30901032A9B5CC3657C
:100AE00000D9091D8165084670470000FA450008D5
:100AF00010B5014600208B698A6A4FF0C07453B16B
:100B0000B3F5005F15D072B1012A0CD0022A0AD0C9
:100B1000032A09D104E01AB1012A06D0022A03D11E
:100B2000C96AC90100D5012010BDC96AA142FAD025
:100B300010BD002AF7D0012AF2D0022AF3D0032AEE
:100B4000F3D010BD70470000F0B5404890F83F105A
:100B50000A2945D20122A0F8CC200222A0F8CE20FA
:100B60000322A0F8D0200422A0F8D2200522A0F869
:100B7000D42040F201170622A0F8D6207E1C0722BE
:100B8000A0F8D820751C6C1CA0F8DA70A0F8DC6006
:100B9000631CA0F8DE50A0F8E0405A1CA0F8E23038
:100BA000A0F8E42001290CD002290DD003290ED091
:100BB00004290FD0052910D0062901D1A0F8E6207C
:100BC000F0BDA0F8E670F0BDA0F8E660F0BDA0F8BA
:100BD000E650F0BDA0F8E640F0BDA0F8E630F0BD6C
:100BE0006522A0F8CC206622A0F8CE206722A0F8CB
:100BF000D0206822A0F8D2206922A0F8D42040F2A8
:100C000065176A22A0F8D6207E1C6B22A0F8D82097
:100C1000751C6C1CA0F8DA70A0F8DC60631CA0F8EE
:100C2000DE50A0F8E0405A1CA0F8E230A0F8E42022
:100C30006529C6D06629C7D06729C8D06829C9D018
:100C40006929CAD06A29B9D0F0BD000090050020FA
:100C500072B6FEE710B558B1084C491E0BD310F818
:100C6000013B5340DBB234F8133083EA1222F4E73D
:100C70004FF6FF7010BD104610BD0000024700087F
:100C800010B5054C04E000BF10F8013B5340E25C96
:100C9000491EF9D2104610BD0246000890F82020E7
:100CA000012A07D0022A05D0416A41F4802141621D
:100CB00001207047006842690A4342610020704782
:100CC000F0B590F820500468A468012D05D0022DDD
:100CD00003D0416A41F4802157E014F0406F01D104
:100CE000E5004FD5C4F301640125A5401D608D6862
:100CF0004FF4C0739DB1CE6835434E6845EAC605D2
:100D0000066803EB0417F5514FF4C275076805EB4D
:100D100004150E697E51097D012905D009E00E8870
:100D2000CD6845EA4655EBE701684E5946F48076B2
:100D30004E511179D579567941EA056195792D049D
:100D400045EA062529434FF4C676056806EB0416E6
:100D5000A9511178D57841EA0561957852782D042A
:100D600045EA022211434FF4C475026805EB0415ED
:100D70005151006803EB0411425842F00102425005
:100D80000020F0BD416A41F4001141620120F0BD34
:100D900010B590F82020012A07D0022A05D0416A18
:100DA00041F480214162012010BD3B48D0F800226F
:100DB00042F00102C0F80022D0F8002222F47C5256
:100DC000C0F80022D0F800224B6A42EA0322C0F8A1
:100DD00000220A7D02F01F0301229A40D0F81C3243
:100DE0009343C0F81C32CB69B3B9D0F80C329343AB
:100DF000C0F80C328C894B6864F31F434C6900EBDC
:100E0000C404C4F840320C890B6864F31F434C6976
:100E100000EBC404C4F84432CB69012B16D1D0F8DE
:100E20000C321343C0F80C320C884B6864F31F4338
:100E30004C6900EBC404C4F840320C89CB6864F3FD
:100E40001F434C6900EBC404C4F844328B69002B87
:100E5000D0F804320ED01343C0F804320B69002BD3
:100E6000D0F8143208D01343C0F81432096A0129AB
:100E700004D008E09343EFE79343F5E7D0F81C1262
:100E80001143C0F81C12D0F8001221F00101C0F883
:100E90000012002010BD000000640040704770B5D3
:100EA00090F82040012C05D0022C03D0416A41F477
:100EB000802128E0046809B32469A40720D04FF4F6
:100EC000D874056804EB01142D5915F004059560DC
:100ED00005682D591AD0ED08556005682C5904F0A5
:100EE0000204D4604FF4DA74056804EB01142E593F
:100EF00006F00F06082E0CD308250DE0E468DCE7A9
:100F0000416A41F400114162012070BD6D0D156010
:100F1000E3E72D5905F00F05156105682D59C5F357
:100F20000725956105682C59240C54614FF4DC7237
:100F3000046802EB0112A4581C700468A458240A27
:100F40005C700468A458240C9C700468A258120EAB
:100F5000DA704FF4DE72046802EB0112A4581C71BF
:100F60000468A458240A5C710468A458240C9C7179
:100F70000468A258120EDA71006829B1016941F0C3
:100F800020010161002070BDC16841F02001C160F5
:100F9000F8E72DE9F05F0546006800244669D0F8BF
:100FA00004908768D0F80CB0D0F810A0D0F8188062
:100FB000F10748D0F90714D001218160B80703D5A3
:100FC000284600F02AFA0CE0780702D54FF40064B6
:100FD00007E0380702D54FF4805402E0284600F0BD
:100FE0001BFAF80516D529684FF480708860B8059B
:100FF00003D5284600F013FA0CE0780502D544F436
:10100000005407E0380502D544F4804402E0284645
:1010100000F004FAF80316D529684FF48030886090
:10102000B80303D5284600F0FCF90CE0780302D59C
:1010300044F4004407E0380302D544F4803402E06D
:10104000284600F0EDF9300707D55FEACB6004D5FC
:101050002968102044F40074C86070074FF0080736
:1010600007D55FEA0B7004D52868C760284600F0F2
:101070009BF9B00706D52868C068800702D02846CB
:1010800000F093F9700607D55FEACA6004D52968B5
:10109000102044F480640861B00607D55FEA0A7046
:1010A00004D528680761284600F086F9F00606D5C1
:1010B00028680069800702D0284600F07EF9B00356
:1010C00008D55FEAC96005D5296810204860284620
:1010D00000F074F9F00307D55FEA097004D52868B9
:1010E0004760284600F09EF9300446D55FEA497013
:1010F00040D5F00504D55FEAC87001D044F0010482
:10110000B00504D55FEA887001D544F0020470058B
:1011100004D55FEA487001D544F00404300529D5B0
:1011200018F0700F26D008F07000402815D006DCAB
:10113000102809D020280AD0302816D10AE05028DB
:101140000ED0602811D10EE044F008040DE044F008
:1011500010040AE044F0200407E044F0400404E0F6
:1011600044F0800401E044F480742868816921F02F
:1011700070018161296804204860002C05D0686AEC
:10118000204368622846FFF789FEBDE8F09F70B5EE
:10119000040003D094F8200010B104E0012070BDD9
:1011A000204600F081F82068016841F001010160EB
:1011B00000F0C6FB0546052604E000F0C1FB401B1D
:1011C0000A2811D820684068C007F6D02068016856
:1011D00021F00201016000F0B3FB05460BE000F0D6
:1011E000AFFB401B0A2806D9606A40F400306062F9
:1011F00084F82060D2E7206840688007EFD4207E22
:101200000128206801683DD021F080010160607EE6
:1012100001282068016838D021F040010160A07EDB
:1012200001282068016833D021F020010160E07EB0
:101230000128206801682ED041F010010160207F54
:1012400001282068016829D021F008010160607F31
:1012500001282068016824D021F004010160D4E94C
:1012600002010843D4E90412114308436168491E8E
:1012700008432168C86100206062012084F82000D2
:10128000002070BD41F08001C0E741F04001C5E79A
:1012900041F02001CAE721F01001CFE741F0080139
:1012A000D4E741F00401D9E7F0B587B00446142132
:1012B0006846FEF7D1FF374B3748DFF8D4E01968AE
:1012C000D4F800C0344A0225032609271030002430
:1012D000491CF44524D11960012907D1016841F066
:1012E00000710160006800F000700590106840F027
:1012F00001001060106802AB00F0010005904FF48F
:10130000C050CDE9000583E8D0006946234800F0CD
:101310001FFA00221146142000F0ACFB142033E029
:10132000DFF87CE0F44531D1D0F800C04CF0806C9F
:10133000C0F800C0D0F800C001290CF0806CCDF8D6
:1013400014C0196007D1016841F0007101600068A4
:1013500000F000700590106840F002001060106806
:1013600002AB00F0020005904FF44050CDE90005BB
:1013700083E8D00069460B4800F0EAF900221146E4
:10138000402000F077FB402000F066FB07B0F0BD86
:10139000006400400000002030380240000002409D
:1013A0000068004000040240704710B5FFF780FA63
:1013B000BDE8104001F034BD704770477047000031
:1013C00070B5044690F82000012804D0606A40F40B
:1013D0000020606218E0022084F820002068016884
:1013E00021F00101016000F0ABFA05460EE000BFFC
:1013F00000F0A6FA401B0A2808D9606A40F40030C1
:101400006062052084F82000012070BD20684068DB
:10141000C007EDD1606270BD70477047704770477C
:101420007047704770472DE9F0410446876D00F022
:1014300087FA064694F835000025022806D0802059
:10144000606584F834500120BDE8F08120680168AF
:1014500021F0160101602068416921F0800141619D
:10146000206C08B9A06C20B12068016821F0080147
:1014700001602068016821F0010101600CE000F0CA
:101480005FFA801B052807D920206065032084F8B7
:10149000350084F83450D7E720680068C007EED1E3
:1014A00094F85C103F208840B860012084F8350033
:1014B00084F834500020C7E790F83510022903D093
:1014C0008021416501207047052180F835100068B2
:1014D000016821F001010160002070472DE9F84307
:1014E00004464FF00009CDF8009063484FF41651C0
:1014F000A56D0068B0FBF1F72E6894F85C10082029
:1015000000FA01F131420FD021680A6852070BD569
:101510000A6822F004020A6094F85C108840A8600F
:10152000606D40F00100606594F85C104FF00108B8
:1015300008FA01F0304208D021684969090604D54B
:10154000A860606D40F00200606594F85C100420B3
:101550008840304208D021680968890704D5A8600E
:10156000606D40F00400606594F85C1010208840C5
:10157000304218D021680968090714D5A86020688E
:101580000168490304D50068000308D5A16C07E091
:101590000168C90503D4016821F008010160216CCC
:1015A00009B12046884794F85C10202088403042DA
:1015B00031D021680968C9062DD5A86094F8350096
:1015C00005282068016806D0490347D50068000354
:1015D0001DD4616C1CE021F0160101602068416996
:1015E00021F080014161206C08B9A06C20B1206815
:1015F000016821F00801016094F85C103F208840E8
:10160000A86084F8358084F83490216D1FE0E16B88
:1016100009B120468847606D00282BD0606DC00757
:1016200014D0052084F835002068016821F00101FC
:1016300001600098401C0090B84203D82068006800
:10164000C007F6D184F8358084F83490E16C002925
:1016500010D001B02046BDE8F04308470168C90535
:10166000D5D4016821F01001016084F8358084F838
:101670003490CCE7BDE8F883180000202DE9F04154
:10168000044600F05DF906465CB1022084F835009E
:10169000002584F834502068016821F001010160C0
:1016A0000DE00120BDE8F08100F04AF9801B05281B
:1016B00005D920206065032084F83500F2E7206812
:1016C0000068C007F0D12268116820480140D4E9C1
:1016D00001031843D4E903363343184363691843BD
:1016E000A3691843E3691843236A18430843616AEE
:1016F000042903D1D4E90B1319430843106020686F
:101700004069666A20F0070130460E43012704282D
:101710000CD1A06A0643E06A40B12046FFF7E8F921
:1017200020B14020606584F83570BAE720684661D2
:101730002046FFF7C9F994F85C203F219140816071
:10174000656584F835700020ACE700003F8010F03C
:101750002DE9F84FDFF8BCA10022012503264FF048
:101760000F090AF1040BAAF1040E00BF0B6805FA79
:1017700002F42340A34270D10F7907F00307012F31
:1017800001D0022F16D187684FEA420806FA08FCFA
:1017900027EA0C07D1F80CC00CFA08FC4CEA070C3D
:1017A000C0F808C04768A7430C79C4F300149440FC
:1017B0003C4344600C79E443A4070AD0C4684FEA70
:1017C000420C06FA0CF7BC438F6807FA0CF7274364
:1017D000C7600C7904F00304022C12D1D40800EB8A
:1017E000840CDCF820405707FF0E09FA07F824EABA
:1017F0000804D1F8108008FA07F848EA0408CCF881
:10180000208004684FEA420C06FA0CF7BC430F79BB
:1018100007F0030707FA0CF7274307604C6814F436
:10182000403F70D03C4C276847F4804727602468CD
:1018300022F0030704F480440094384C07EB040CB6
:10184000DCF8084897074FEA177809FA08F7BC430D
:10185000334FB84202D1002724E054E0314FB84260
:1018600001D101271EE0304FB84201D1022719E013
:101870002E4FB84201D1032714E02D4FB84201D1B9
:1018800004270FE02B4FB84201D105270AE02A4F69
:10189000B84201D1062705E0284FB84201D10727F9
:1018A00000E0082707FA08F72743CCF80878DAF8A9
:1018B00000405746D1F804C09C435FEACC2C00D5C9
:1018C0001C433C60DBF800405F46D1F804C09C43F9
:1018D0005FEA8C2C00D51C433C60DEF80040774664
:1018E000D1F804C09C435FEA8C3C00D51C433C60AB
:1018F000084F083F3C68D1F804C09C435FEACC3CE9
:1019000000D51C433C60521C102AFFF42FAFBDE8E9
:10191000F88F0000083C014044380240003001408C
:10192000000002400004024000080240000C024097
:10193000001002400014024000180240001C024047
:101940000148806870470000040000200248816858
:101950000278114481607047040000200B4810B5E4
:10196000016841F400710160016841F48061016027
:10197000016841F480710160032000F09BF80F20A2
:1019800000F006F800F050F8002010BD003C0240C6
:1019900030B505461F4887B00024016841F48071C6
:1019A0000160006806A900F48070009001A800F0B2
:1019B0002DF90498A8B100F049F940001649174ADA
:1019C000B0FBF1F11648491E026040F2E732C0E96F
:1019D0000324C0E90114846100F08AFB040003D0F1
:1019E00015E000F033F9E9E70D4800F0CDFB040005
:1019F0000DD12D2000F030F8102D07D200222946FD
:101A00002D2000F037F80748056000E0012407B0FA
:101A1000204630BD4038024040420F0000200040C8
:101A200038020020080000200A4808B5016841F487
:101A300080410160006800F4804000900548001F6C
:101A4000016841F080510160006800F08050009012
:101A500008BD000044380240002809DB00F01F02E6
:101A6000012191404009800000F1E020C0F8001100
:101A700070470000F0B40E4B1B680C46C3F3022302
:101A8000C3F10705042D00D90425191D072901D22A
:101A9000002300E0DB1E012606FA05F1491E214065
:101AA00099409E40761E16403143F0BC01F055BF70
:101AB0000CED00E0064900F0070208684FF6FF034E
:101AC000184040EA0220034A1043086070470000B3
:101AD0000CED00E00000FA052DE9F0470E46050088
:101AE00065D0DFF81481D8F80000F7B200F00700E5
:101AF000B04207D288F80070D8F8000000F0070064
:101B0000B04254D128683D4C810712D5400703D517
:101B1000206840F4E05020602878000703D5206852
:101B200040F4604020602068A96820F0F00008437D
:101B300020602878C0072DD030496868083901280E
:101B400012D0022813D0032811D009688907002970
:101B50002DDA216821F0030101432160FFF7F0FE37
:101B6000814641F2883A0EE009688903EFE7096887
:101B70008901ECE7FFF7E4FEA0EB0901514502D92A
:101B80000320BDE8F0872068696800F00C00B0EB26
:101B9000810FEFD1D8F80010404601F00701B142A3
:101BA00007D90770006800F00700B04201D001209B
:101BB000E7E72878400705D52068E96820F4E05079
:101BC000084320602878000706D52068296920F49A
:101BD000604040EAC100206000F058F82168084ADF
:101BE000C1F30311515CC84006490860064800680B
:101BF000FFF7CEFE0020C4E7003C02400838024058
:101C00000249000818000020080000200F2202608E
:101C10000C4A136803F003034360136803F0F003F6
:101C20008360136803F4E053C36012684FF4E05319
:101C300003EAD20202610448006800F0070008606D
:101C40007047000008380240003C02400448054943
:101C500000680968044AC1F38221515CC84070479A
:101C600018000020083802401249000804480549BD
:101C700000680968044AC1F34231515CC8407047AA
:101C8000180000200838024012490008154810B515
:101C9000006810F00C02144813D01449042A0FD025
:101CA000082A0ED10F4C241F2268236802F03F023D
:101CB0005B0207D52068C0F38810A0FB010106E095
:101CC000084610BD2168C1F38811A1FB0001002363
:101CD000FEF778FA2168C1F30141491C4900B0FBC5
:101CE000F1F010BD083802400024F40040787D0176
:101CF0002DE9F84F04006ED02078DFF84C93C00730
:101D0000A9F104054AD009F104000168C1F3810179
:101D1000012908D00068C0F3810002280AD1D9F84F
:101D20000000400206D52868800337D56068002887
:101D3000E1D033E06068B0F5803F10D0B0F5A02F5F
:101D4000286810D020F480302860286820F4802093
:101D500028606068A8B1FFF7F3FD06460DE028682B
:101D600040F48030F4E740F480202860F7E700BFBB
:101D7000FFF7E6FD801B642873D828688003F7D539
:101D80000CE0FFF7DDFD064605E000BFFFF7D8FDDC
:101D9000801B6428F0D828688003F7D42078DFF807
:101DA000AC8280074FF0000A3ED5A748001D0168AD
:101DB00011F00C0F08D00068C0F3810002280BD18D
:101DC000D9F80000400207D42868800716D5E068DB
:101DD000012800D112E033E1E068B8B10120C8F871
:101DE0000000FFF7ADFD064605E000BFFFF7A8FDC8
:101DF000801B0228C0D828688007F7D52868216989
:101E000020F0F80040EAC10028600DE0C8F800A00A
:101E1000FFF796FD064604E0FFF792FD801B0228BF
:101E20001FD828688007F7D42078000722D5864F6E
:101E300087486169703771B101210160FFF780FD4A
:101E4000064604E0FFF77CFD801B022809D83868AD
:101E50008007F7D50EE0C0F800A0FFF771FD064639
:101E600005E082E0FFF76CFD801B02287DD8386812
:101E70008007F7D42078400768D5DFF8CCB1002779
:101E80000BF13C0BDBF80000C0000BD4DBF80010BA
:101E900041F08051CBF80010DBF80000012700F082
:101EA000805000906B4E3068C00510D4306840F40C
:101EB00080703060FFF744FD009005E0FFF740FDC3
:101EC0000099401A022850D83068C005F6D55E4EF9
:101ED000A0686C3601280FD00528306810D020F09B
:101EE00001003060306820F004003060A068B8B1B4
:101EF000FFF726FD00900FE0306840F00100F4E7A6
:101F000040F004003060F7E7FFF71AFD0099411A2E
:101F100041F28830814266D830688007F4D50EE0FF
:101F2000FFF70EFD009007E0FFF70AFD0099411A48
:101F300041F28830814256D830688007F4D42FB1FE
:101F4000DBF8001021F08051CBF80010A069C8B375
:101F50003D49091D0968C1F3810102294AD00228BF
:101F6000504607D0C8F8600000E03CE0FFF7E8FC0E
:101F700004463BE04746C8F86000FFF7E1FC064630
:101F800005E000BFFFF7DCFC801B02282BD8286887
:101F90008001F7D4D4E907010843A16A2E4A490811
:101FA00002EB0141626A41EA8211084394F82C1065
:101FB00040EA0161C9F8001001203866FFF7C0FC53
:101FC000044606E03EE000BFFFF7BAFC001B022813
:101FD00009D828688001F7D534E000BFFFF7B0FCCE
:101FE000001B022802D90320BDE8F88F2868800171
:101FF000F4D427E00128F7D0D9F80000E26900F412
:10200000800191421CD1226A00F03F01914217D118
:1020100047F6C071626A0140B1EB821F10D1A26A1B
:102020004FF0FF3300F4403103EB5202B1EB024FAB
:1020300006D194F82C1000F07060B0EB016F01D065
:102040000120D1E70020CFE70438024000004742DA
:10205000800E4742007000400000FFFF704770474D
:1020600070B590F83C20012A32D0012480F83C4021
:10207000022280F83D2003685A689D6822F07006AD
:102080000A6832435A60134B02689A4214D0B2F184
:10209000804F11D0104B9A420ED0104B9A420BD069
:1020A0000F4B9A4208D00F4B9A4205D00E4B9A42E2
:1020B00002D00E4B9A4204D1496825F0800319439F
:1020C000916080F83D40002180F83C10084670BDCA
:1020D000022070BD000001400004004000080040E4
:1020E000000C004000040140004001400018004086
:1020F00010B5040003D094F83D0010B107E00120B2
:1021000010BD002084F83C00204600F01FF802209B
:1021100084F83D00211D206801F000FA012084F8B8
:10212000460084F83E0084F83F0084F8400084F8BC
:10213000410084F8420084F8430084F8440084F8A5
:10214000450084F83D00002010BD000008B500687F
:102150000B49884212D10B48016841F0100101601F
:102160000068002200F0100000900A213620FFF7DE
:1021700081FCBDE808403620FFF76EBC08BD0000BA
:10218000001000404038024090F83D10012901D075
:1021900001207047022180F83D100168CA6842F0B2
:1021A0000102CA6000681149884214D0B0F1804F22
:1021B00011D00F4988420ED00E4988420BD00E49EB
:1021C000884208D00D49884205D00D49884202D086
:1021D0000C49884204D1816801F00701062903D027
:1021E000016841F0010101600020704700000140DA
:1021F0000004004000080040000C004000040140C2
:10220000004001400018004070472DE9F0410446AD
:102210000068C66805694FF00007A90713D5B10724
:1022200011D5F91E0161012020772068806980079F
:10223000204602D0FFF7E8FF04E000F07EF82046D9
:1022400000F07CF82777680716D5700714D5216849
:102250006FF004000861022020772068806910F484
:10226000407F204602D0FFF7CFFF04E000F065F882
:10227000204600F063F82777280715D5300713D5D7
:1022800021686FF008000861042020772068C06989
:102290008007204602D0FFF7B7FF04E000F04DF8BA
:1022A000204600F04BF82777E80616D5F00614D53F
:1022B00021686FF010000861082020772068C0694D
:1022C00010F4407F204602D0FFF79EFF04E000F0AC
:1022D00034F8204600F032F82777E80708D0F007F6
:1022E00006D021686FF001000861204600F028F850
:1022F000280608D5300606D521686FF080000861F1
:102300002046FFF7ABFE680608D5700606D52168A3
:102310006FF040000861204600F022F8A8060AD5B8
:10232000B00608D521686FF0200008612046BDE89E
:10233000F041FFF794BEBDE8F081704770470000A0
:1023400000680549884201D1FFF700BB0349884274
:1023500001D102F0B7B870470020004000100040E3
:102360007047704770470000F8B501680446086878
:10237000CA684B6910F00F0F4FF0000559D003F0F9
:10238000010602F49077374365D0C10705D0D10527
:1023900003D5616C41F001016164410705D5D9079E
:1023A00003D0616C41F002016164810705D5D90752
:1023B00003D0616C41F004016164010707D502F0AC
:1023C0002001314303D0616C41F008016164616C0C
:1023D00000293AD0800604D5900602D5204601F0A7
:1023E0003EF920684069616CC0F38010090700D491
:1023F00060B3204601F00CF920684069400621D501
:102400002068143050E8001F21F0400140E800121D
:10241000002AF5D1E06BA8B16E490165E06BFFF7CA
:102420004BF8002811D0E06B016D01B0BDE8F04021
:10243000084783060FD593060DD52046BDE8F84022
:1024400001F00DB92046FFF78DFFF8BD2046FFF7DC
:1024500089FF6564F8BD266B2023012E7DD1C60659
:102460007BD5D60679D508684868009048694FF052
:102470000206400641D5E16B086840680004000C84
:10248000E8D0A28D8242E5D9E085C869B0F5807FA9
:102490002DD020680C3050E8001F21F4807140E8F6
:1024A0000012002AF5D12068143050E8001F21F0F6
:1024B000010140E80012002AF5D12068143050E8EC
:1024C000001F21F0400140E80012002AF5D184F8F5
:1024D0004230256320680C3050E8001F21F01001C5
:1024E00040E80012002AF5D1E06BFEF79CFF66631E
:1024F000A08DE18D401A81B22AE0A08DE18D401AB5
:1025000081B2E08D0028A5D00029A3D022680C322A
:1025100052E8000F20F4907042E80007002FF5D138
:102520002068143050E8002F22F0010240E8002714
:10253000002FF5D184F84230256320680C3050E834
:10254000002F22F0100240E80023002BF5D1666333
:102550002046FFF706FFF8BDFFE705062BD5150659
:1025600029D594F841002128F5D1A068B0F5805F05
:1025700001D12069B0B1206A411C21622168007834
:102580004860E08C401E0004000CE084E3D1206829
:10259000C16821F08001C1602068C16841F040013C
:1025A000C160D8E7206A0088C0F308004860206A4C
:1025B000801C2062E5E74006CDD55006CBD5CA6821
:1025C000204622F04002CA6084F8413000F0B3F89F
:1025D000C1E700000136000870B5040004D094F88B
:1025E0004100002510B106E0012070BD84F8405084
:1025F000204600F023F8242084F841002068C168B8
:1026000021F40051C160204601F08AF82068016978
:1026100021F4904101612068416921F02A01416162
:102620002068C16841F40051C1606564202084F8CD
:10263000410084F842006563002070BDF0B587B0AA
:10264000064614216846FDF707FE3449324F3468C8
:1026500000253248143902220323BC423DD10468CC
:1026600044F010040460006800F010000590086851
:1026700040F0010008600868694600F0010005901C
:1026800058028DE825000720CDE903302448FFF7E4
:102690005FF8254C234820604FF00060C4E9010535
:1026A0004014C4E9035080106561C4E906504FF43A
:1026B0004030C4E908052046FEF7E0FF08B1FEF708
:1026C000C7FAF463002205212520A663FFF7D2F99B
:1026D0002520FFF7C1F907B0F0BD144EB442FAD17E
:1026E000046844F020040460006800F020000590B5
:1026F000086840F0040008600868694600F00400BB
:102700000590C0208DE825000820CDE90330084859
:10271000FFF71EF8DFE700000010014044380240D8
:102720000000024040640240D80100200014014033
:102730000008024070477047034800210180418033
:102740008180C18070470000A8080020FEE70000DB
:1027500038B501680A68D20620D5CA68D2061DD5E8
:1027600004460868486800900D48844216D1E06B22
:102770000068016821F0010101600A4800F0DAF9FF
:10278000C8210848FDF768FDE16BC820096848606A
:10279000E06B0068016841F00101016038BD000094
:1027A00048010020BA0700200548064AB0F91C106D
:1027B0001140012900D000214182018281827047AD
:1027C000A80800200100008010B5FFF7EDFF0948C0
:1027D0000949B0F91C000840012809D100F004FEA5
:1027E00000F0DEFA00F092FABDE8104000F0FABC0A
:1027F00010BD0000A80800200100008070B5C2488C
:102800002DED088BB0F9101000EE101AB8EEC00ACA
:10281000DFEDBE0A80EE201AB2EE000A21EE001AA9
:10282000DFEDBB1ABB4C21EE211A84ED0B1AB0F977
:10283000121001EE901AF8EEE11A81EEA02A22EEB3
:10284000000ADFEDB50A012160EE200AC4ED0C0A92
:10285000618290F916300020012B10D0AA4AAF4DAA
:10286000022B92F917207DD09FEDAD0A032B0AD0E1
:102870006082208284ED0D0ABDEC088B70BD608201
:102880002082A082F8E76182A4482182A182B0F967
:10289000A000012A26D0022A4FD0032AECD170EEE4
:1028A000C11A70EE810A84ED0D0A30EE612A30EE15
:1028B000801ABDEEC22ABDEEC11A12EE100A2080A7
:1028C00011EE100A31EE801A608030EE600ABDEE23
:1028D000C11A11EE100AA080BDEEC00A10EE100A57
:1028E000E080C9E700EE900A84ED0D0A0C20F8EEB6
:1028F000E00A00F00DFC84ED0D0A94ED0C1AD4ED05
:102900000B1A71EE610A31EE211A30EE602A71EE77
:10291000001A70EE800A30EE410ABDEEC22AFDEECA
:10292000E11AFDEEE00A12EE100A208011EE900A84
:10293000608010EE900AA080CEE79FED7A0A84EDC9
:102940000D0A00EE100AF8EEC00A9FED778AF0EE4D
:10295000008A80EE880A20EE280A9FED749A20EE05
:10296000090A00E0A9E010EE100AFDF708FE41ECAC
:10297000100B01F005F8B0EE40AAF0EE60AA206B53
:10298000FDF7FDFD53EC1A2BFDF718FD41EC1A0B7A
:1029900035F9A00F00EE100AF8EEC00A80EE880AA2
:1029A00020EE280A20EE090A10EE100AFDF7E7FDD6
:1029B00041EC100B01F048F8B0EE40BAF0EE60BA0E
:1029C000E06AFDF7DCFD53EC1B2BFDF7F7FC53EC45
:1029D0001A2BFDF7EDFCFDF7E5FDE063B5F900000E
:1029E00000EE100AF8EEC00A80EE880A20EE280AEF
:1029F00020EE090A10EE100AFDF7C1FD41EC100BA4
:102A000001F022F8B0EE40AAF0EE60AA206BFDF7CC
:102A1000B6FD53EC1A2BFDF7D1FC41EC1A0BB5F9BE
:102A2000000000EE100AB8EEC00AC0EE080A20EE60
:102A3000A80A20EE090A10EE100AFDF7A0FD41ECED
:102A4000100B00F09DFFB0EE408A94ED0B0AF0EE03
:102A5000608AB1EE401A11EE100AFDF790FD53ECBA
:102A6000182BFDF7ABFC53EC1A2BFDF7A1FCFDF77F
:102A700099FD00EE100A84ED0E0A94ED0F1AD4EDC4
:102A80000D0A71EE401A31EE000A31EEA02A30EE46
:102A9000C01A30EE200ABDEEC22ABDEEC11A12EEF7
:102AA000100A208011EE100A30EEE11A6080BDEEAF
:102AB000C11A11EE100AA0800EE761822182A18264
:102AC000012A0AD0022A1CD0032A15D02082E18CC8
:102AD00001297FF4D7AE2082CEE6A27B521CD2B26F
:102AE000A273052A02D90221A173F0E7012AEED1CF
:102AF0000F4AA2602182EAE7A5F88000A060A073D7
:102B0000E5E743F6FE72F4E7820800200000254462
:102B100000007A44A808002000007AC4E8040020DD
:102B2000000000000000FA4400F8FF45DA0F4940B9
:102B30000640FFFF2DE9F04104004FF0000671D080
:102B4000704D2068704F2860207928712078A52862
:102B500069D10521204600F0D5FE012854D16178C5
:102B60002046093100F0B0FE01284DD1B4F805101F
:102B70000126B1F5017F77D01DDCB1F5827F58D0F9
:102B80000EDC032944D004DC01292FD002293BD1DB
:102B90003BE0A1F5807101393FD0012934D143E0F8
:102BA000A1F58071053949D0FC294BD0FD2950D0C1
:102BB000FE2929D153E0534840F20A238030A1F284
:102BC0000A22994270D008DCA1F2052105291BD206
:102BD000DFE801F04E52555F6400012A69D0022AF5
:102BE0006ED0FD2A75D0FE2A7BD177E0D4F807009D
:102BF000C5F80500D4F80B00C5F80900B4F80F00BB
:102C0000A5F80D00607CE8736BE0E079287468E05B
:102C10003C482022E11D11304FE0D4F80700C5F8F0
:102C200031005EE06BE068E0D4F80700C5F83500DD
:102C300057E0B4F80700A5F8390052E0E07985F8CC
:102C40003B004EE0FDF780FF2E481B22E11D3F3088
:102C500033E02C481022E11D5A302EE004E02948D0
:102C60001022E11D6A3028E0E07985F87A0038E02A
:102C7000E07985F87F0034E0E179417031E0D4F803
:102C80000710C0F80210B4F80B10C180617B01720C
:102C900027E0D4F8071040F8091F15E0D4F8071012
:102CA000C0F80F101DE0FFE7D4F8071040F8131F1D
:102CB0000AE014482822E11D9930FDF7B4FA10E02B
:102CC000D4F8071040F8411FB4F80B10818008E0D9
:102CD000FFE7D4F80710C0F8471002E0E17980F868
:102CE0004B10B5F801000934015DA52902D120443B
:102CF000FFF720FF0EB1012000E000203870BDE892
:102D0000F08100009005002010000020194810B547
:102D100030F8183F184CC3F3C02281798271511AE0
:102D2000C3F3C013027A03729A1A49B2012352B252
:102D3000491C02D1E38200202083521C02D1208B47
:102D4000401C2083B4F916100C480140012908D01A
:102D5000B4F918100140012907D0BDE81040FDF773
:102D6000C9BDFFF7E9FC638410BD00F067FA0320DA
:102D7000608410BD82080020A808002001000080A7
:102D800005480649B0F91C000840012801D0FFF7AA
:102D900035BDFFF719BD0000A80800200100008024
:102DA00030B51C484FF61843018B1B48CC0790F8F0
:102DB000402012FB03F34FF47A7512FB05F29FEDEE
:102DC000170A08D000EE903A8C07F8EEE00AC0ED42
:102DD0000C0A09D40AE08C0706D500EE902AF8EE1A
:102DE000600AC0ED0C0A01E080ED0C0A4C0708D522
:102DF00000EE903A0907F8EEE00AC0ED0B0A06D49F
:102E000030BD090703D500EE102AB8EE400A80ED68
:102E10000B0A30BD82080020A80800200000000036
:102E2000314B10B5186803F13401A0F201200728D6
:102E30000BD2DFE800F004061D200A0A23002B480D
:102E400001E02A481C3001F06DFB596C2848A1F5BF
:102E50008071013915D0012921D0B1F5827F1DD1B2
:102E6000214922487831BDE810408C3001F05ABB2E
:102E70001E483830E7E71D485430E4E71B487030FF
:102E8000E1E733F8781F49BA8181598849BAC1818D
:102E9000998849BA0182D98849BA418210BD154939
:102EA00093F878208A8193F87920CA82B3F87A203F
:102EB00052BA028393F87C208A8393F87D408C84F5
:102EC00093F87E10C1750C490A424FF0000104D0FE
:102ED00093F87F208272817510BDD207FCD193F8E0
:102EE0007F208275817210BD20000020E804002040
:102EF00082080020A80800200100008030B5164894
:102F00008BB01449016006210024C0E90114C905F1
:102F1000C160091201614FF48011416104760125FD
:102F200045768576C57604774477FEF730F908B1A3
:102F3000FDF78EFECDE906450595089504940094AD
:102F400001940294694604480394FDF721FF0BB0F5
:102F500030BD000000640040B000002030B51648CD
:102F60008BB01449016006210024C0E90114C90591
:102F7000C160091201614FF480114161047601259D
:102F800045768576C57604774477FEF700F908B173
:102F9000FDF75EFE05A90F2081E831000895049435
:102FA000009401940294694603480394FDF7F0FEEF
:102FB0000BB030BD00680040D8000020094808B5BB
:102FC000016841F4800101600068002200F4800083
:102FD000009011463A20FEF74DFDBDE808403A202A
:102FE000FEF73ABD3038024000B587B0142168467C
:102FF000FDF732F916480021026842F080020260B3
:10300000026802F080020592026842F00202026049
:10301000026802F002020592026842F004020260B5
:10302000026802F004020592026842F001020260A6
:10303000006800F0010005902020CDE90001022089
:10304000029069460348FEF783FB07B000BD00000D
:1030500030380240000402401CB500240E480094A1
:103060000C490194016042F2CF01C0E901141D2115
:103070008461C160FFF73CF808B1FDF7E9FD0094F9
:10308000694605480194FEF7EBFF002801D0FDF7E3
:10309000DFFD1CBD00100040000100200C4810B5F1
:1030A0000A4901604FF4E1314160002181600C2246
:1030B000C160C0E904128161C161FFF78DFA002887
:1030C00003D0BDE81040FDF7C3BD10BD00100140A6
:1030D000480100200C4810B50A4901604FF4E13165
:1030E0004160002181600C22C160C0E9041281614D
:1030F000C161FFF771FA002803D0BDE81040FDF769
:10310000A7BD10BD0014014090010020FEE7FEE7BE
:1031100000EB400101EBC001304800EB810080ED85
:10312000000A30EE600A80ED010AD0ED050AB4EE27
:10313000E00AF1EE10FA0AD2F1EE600AB4EEE00A0B
:10314000F1EE10FA03DD9FED260A80ED010AD0EDC5
:10315000030A30EE801A80ED031AD0ED090AB4EEAE
:10316000E01AF1EE10FA01DDC0ED030A90ED031A4A
:10317000F1EE600AB4EEE01AF1EE10FA01D2C0ED01
:10318000030AD0ED060A90ED071AD0ED031A60EE9F
:10319000800A41EE210A90ED021AD0ED081A30EEB5
:1031A000411A41EE810AC0ED040A90ED0A1AF4EECC
:1031B000C10AF1EE10FA01DD80ED041AD0ED041A17
:1031C000F1EE410AF4EEE01AF1EE10FA01D2C0ED90
:1031D000040A80ED020A90ED040A70478002002084
:1031E00000000000104A01231048917A012907D0FD
:1031F000128BD20410D543F6FE71816003827047B2
:10320000817B491CC9B28173052901D9022109E0DA
:103210000129F4D10649F0E70029F0D1054AA2F8C6
:10322000801081608173704782080020A808002008
:103230000640FFFFE80400207047000070B52DED48
:10324000088B9FED640A644C644D84ED0D0A35F9DA
:10325000A00F00EE100AF8EEC00A9FED618AF0EEB2
:10326000008A80EE880A20EE280A9FED5E9A20EE02
:10327000090A10EE100AFDF782F941EC100B00F07C
:103280007FFBB0EE40AAF0EE60AA206BFDF777F965
:1032900053EC1A2BFDF792F841EC1A0BB5F900002C
:1032A00000EE100AF8EEC00A80EE880A20EE280A26
:1032B00020EE090A10EE100AFDF761F941EC100B3F
:1032C00000F0C2FBB0EE40BAF0EE60BAE06AFDF783
:1032D00056F953EC1B2BFDF771F853EC1A2BFDF745
:1032E00067F8FDF75FF9E063B5F9000000EE100A3A
:1032F000F8EEC00A80EE880A20EE280A20EE090ABD
:1033000010EE100AFDF73BF941EC100B00F09CFBAE
:10331000B0EE40AAF0EE60AA206BFDF730F953EC56
:103320001A2BFDF74BF841EC1A0BB5F9000000EE33
:10333000100AB8EEC00AC0EE080A20EEA80A20EE75
:10334000090A10EE100AFDF71AF941EC100B00F013
:1033500017FBB0EE408A94ED0B0AF0EE608AB1EEF6
:10336000400A10EE100AFDF70AF953EC182BFDF78E
:1033700025F853EC1A2BFDF71BF8FDF713F900EEB7
:10338000100A84ED0E0A94ED0F1AD4ED0D0A71EEB9
:10339000401A31EE000A31EEA02A30EEC01A30EEAB
:1033A000200ABDEEC22ABDEEC11ABDEEC00A12EE61
:1033B000100A208011EE100A30EEE11A6080BDEE96
:1033C000C11A11EE100AA08010EE100AE080BDECC8
:1033D000088B70BD0000FA44A8080020E804002013
:1033E00000F8FF45DA0F494030B51849032040F690
:1033F000B83381F84000164841F28832B0F90040F5
:10340000B0F91C502C44B0F93850B0F9540028449D
:103410002044C41700EB94700E4C40F38F00247EC0
:10342000E40601D50A2006E0984203DC40F6B833F2
:10343000D84203DA052081F8400030BD904203DC19
:1034400041F28832D042F8DA0720F4E7A8080020D9
:10345000E8040020820800207047704730B593B020
:1034600030216846FCF7F8FE14210CA8FCF7F4FEA6
:103470001E480025016841F080510160006800F09D
:10348000805011901A48016841F480410160006841
:10349000022400F48040119001200090000401906B
:1034A0008001CDE90640192008904FF4A870CDE9BD
:1034B000090404200B906846FEF71AFC08B172B6A6
:1034C000FEE70CA90F2081E831004FF4A0500F90C7
:1034D0004FF48050109005210CA8FEF7FDFA00284B
:1034E00001D072B6FEE713B030BD00004038024094
:1034F000007000400248016841F4700101607047AB
:1035000088ED00E00148FEF780BE000000010020C9
:103510000148FEF77ABE000038020020F0B50268CC
:10352000294C2A4D2A4E2B4F2B4B4FF0804CA0425A
:1035300009D0604507D0A84205D0B04203D0B842B8
:1035400001D0984204D122F0700E4A6842EA0E027D
:10355000A0421BD0604519D0A84217D0B04215D068
:10356000B84213D0984211D01C4DA8420ED01C4D29
:10357000A8420BD01B4DA84208D01B4DA84205D035
:103580001A4DA84202D01A4DA84203D122F4407528
:10359000CA682A434D6922F080022A4302608A6881
:1035A000C2620A688262A04201D0984201D10969D0
:1035B0000163012141610169C90703D0016921F05B
:1035C00001010161F0BD0000000001400004004065
:1035D00000080040000C0040000401400040014091
:1035E000004401400048014000180040001C004019
:1035F000002000400148FEF7C7BD00000001002088
:1036000010B5806B0021C185C184FEF7ABFE10BDF3
:1036100001680C3151E8002F22F4907241E8002338
:10362000002BF5D10168143151E8002F22F001027E
:1036300041E80023002BF5D1016B012909D1016874
:103640000C3151E8002F22F0100241E80023002B3A
:10365000F5D1202180F8421000210163704708B5A0
:1036600090F84210222901D0022008BD82684FF450
:1036700080539A4201D1016921B1816A9A421BD0DB
:103680004AB10AE00268816A5268C2F308020A80FD
:10369000816A891C08E0026972B10268526802F00E
:1036A0007F020A70816A491C8162C18D491E09042A
:1036B000090CC18503D01BE002685268F1E701687C
:1036C000CA6822F02002CA600168CA6822F48072C7
:1036D000CA6001684A6922F001024A61202180F82B
:1036E000421000214163026B012A03D0FFF722F848
:1036F000002008BD016301680C3151E8002F22F061
:10370000100241E80023002BF5D101680A68D206B7
:1037100002D50A6849680091818DFEF722FEE7E72D
:1037200070B5044600680169E26821F44051114314
:1037300001612169A068E269084361691143084396
:103740002168CA6849F20C639A430243CA60206840
:103750004169A26921F440711143416131492068F6
:10376000884202D03049884202D1FEF77FFA01E058
:10377000FEF76CFAE2690023192164253226B2F5BE
:10378000004F626828D0A0FB0101930F9200FCF764
:1037900019FD0146B0FBF5F06FF01802504301EB44
:1037A000800006EB0010B0FBF5F000F0F002B1FB7A
:1037B000F5F002EB0012B1FBF5F06FF0180358437F
:1037C00001EB800006EB0010B0FBF5F000F00F00FD
:1037D00021681044886070BDA0FB010192185B4114
:1037E000FCF7F0FC0146B0FBF5F00201B1FBF5F08F
:1037F0006FF01803584301EB800006EBC000B0FBEC
:10380000F5F000F0F80002EB4002B1FBF5F0584390
:1038100001EB800006EBC000B0FBF5F000F0070004
:10382000D6E70000001001400014014010B5044824
:10383000FEF78EFFBDE810400148FEF795BD000081
:103840004801002030B51D490868C26842F01002E6
:10385000C2600868426942F040024261C86B096870
:10386000174A90F83440C823091D012C09D00124BF
:1038700080F8344090F835500024012D02D080F8B3
:10388000344030BD022580F8355044650468256811
:1038900025F480252560046863608368402B0368F5
:1038A00008D099600168CA600068016841F00101B0
:1038B000016030BD9A600268D160F5E748010020E0
:1038C000BA070020FEE7000030B50C46050014D012
:1038D000022C12D90A48A11E42882846FDF7BAF9DF
:1038E0002919C2B211F8023C9A4206D111F8011C02
:1038F000B1EB102F01D1012030BD002030BD000000
:103900001000002030B50C4605000CD0022C0AD95E
:10391000FF22611EFDF7B4F9291911F8011C81423B
:1039200001D1012030BD002030BD03B40198410019
:10393000009850EAC12018BF04204A0D18BF40F07B
:10394000010040F2FF72B2EB515F08BF40F002008D
:10395000012808BF052002B070470907090E00289A
:1039600004DB00F1E02080F80014704700F00F0045
:1039700000F1E02080F8141D7047000000000000F6
:1039800010B52F499FED2C1B2DED020B84B005982F
:1039900020F000408842D8BF9DED040B2DDD294961
:1039A000884209D1049840B94FF0010000F0D4FCDE
:1039B00000F0A2FC06B010BD05DB9DED040B00F08D
:1039C0008FFC06B010BD68469DED040B00F0A0F81A
:1039D00010F0030004BF9DED021B9DED000B0CD009
:1039E00001280ED09DED021B9DED000B022817D083
:1039F000012000F0DDFB06B010BD00F0A5FA06B016
:103A000010BD9DED021B9DED000B012000F0D0FBD1
:103A100051EC100B81F0004106B041EC100B10BDD1
:103A200000F092FA51EC100B81F0004106B041EC2D
:103A3000100B10BD0000000000000000000000009E
:103A4000FB21E93F0000F07F10B52F499FED2C1BB3
:103A50002DED020B84B0059820F000408842DCBFB9
:103A600000209DED040B32DD2849884209D10498DD
:103A700040B94FF0010000F06FFC00F03DFC06B0D3
:103A800010BD05DB9DED040B00F02AFC06B010BD57
:103A900068469DED040B00F03BF810F0030011D0D8
:103AA000012818D09DED021B9DED000B02281AD0B5
:103AB00000F04AFA51EC100B81F0004106B041ECE5
:103AC000100B10BD9DED021B9DED000B012000F0C1
:103AD0006FFB06B010BD9DED021B9DED000B00F0CD
:103AE00033FA06B010BD012000F062FB51EC100B60
:103AF00081F0004106B041EC100B10BD0000000049
:103B00000000000000000000FB21E93F0000F07F02
:103B10002DE9F14F04462DED020B2DED088B8AB0F7
:103B20009FEDE70B80ED020B139EE74826F0004562
:103B300085420ADC9DED120B002084ED000B0AB0DB
:103B4000BDEC088B03B0BDE8F08FE0489FEDE0AB23
:103B50009FEDE1BBA84247DDE14F9FEDE39B9FED69
:103B6000E48B9DED120B53EC1A2B51EC100B002E35
:103B70001CDDFCF71DFC41EC100BBD4208D053ECE2
:103B80001B2B51EC100BFCF713FCC4E900010BE0FC
:103B900053EC192B51EC100BFCF70AFC53EC182BCF
:103BA000FCF706FCC4E900010120C8E7FCF75FFB55
:103BB00041EC100BBD4208D053EC1B2B51EC100B09
:103BC000FCF755FBC4E900010BE053EC192B51EC59
:103BD000100BFCF74CFB53EC182BFCF748FBC4E92B
:103BE00000014FF0FF30AAE7C348A84279DB9DED02
:103BF000120B51EC100B00F072FC41EC180B9FED16
:103C0000C00B53EC102BFCF7D9FB9FEDBF1B53EC03
:103C1000112BFCF72CFBFCF7D7FD0746FCF7B6FD94
:103C200041EC190B53EC1A2BFCF7C8FB53EC182B87
:103C3000FCF7C1FB41EC180B53EC1B2B51EC190B9F
:103C4000FCF7BCFBDFF8C8A241EC100B4FEA15589B
:103C50000125FA4453EC102B51EC180BFCF7A8FB90
:103C6000032DC4E900013DD0C1F30A5005EB451115
:103C7000A8EB00001139814234DA0AEB051BB0EEE3
:103C800048AA9BED000BF0EE68AA53EC102B51EC08
:103C9000190BFCF793FB41EC1B0B51EC1A0B53EC8B
:103CA0001B2BFCF785FB41EC180B51EC1A0B53EC6A
:103CB000182BFCF77DFB53EC1B2BFCF779FB9BEDE2
:103CC000020B41EC1A0B53EC102B51EC190BFCF7C7
:103CD00075FB53EC1A2BFCF76BFB41EC100B6D1CC6
:103CE000B8E70EE0002EA8BF3846BFF628AF94ED27
:103CF000000B51EC100B81F00041C4E90001784247
:103D00001DE7C6F3130040F4801EC6F30A50A0F26C
:103D1000F530471100F01F05C5F12000DDF848B06F
:103D200008900020069007900520EC467949002D68
:103D300007EB0002794408BF51F8221009D051F86E
:103D4000223001EB8201AB404A68089922FA01F166
:103D50001943A1FB0E26A1FB0B131A449A4234BF50
:103D60000123002303EB06080CEB8003D3E901A633
:103D70000E448E4234BF0121002192448A4411B185
:103D8000924502D903E0924501D2012100E00021D1
:103D9000C3E901A641444CF82010011EA0F1010026
:103DA000C4DC029800F10050850F0298DDE903673A
:103DB0008000DDF81480FCF7E9FC41EC1A0B30467A
:103DC000FCF7F5FC9FED541B53EC112BFCF7F6FAB6
:103DD00041EC1B0B3846FCF7EAFC9FED511B53EC02
:103DE000112BFCF7EBFA41EC180B4046FCF7DFFC1B
:103DF0009FED4D1B53EC112BFCF7E0FA41EC190B36
:103E000051EC180B53EC192BFCF731FA53EC1B2B2C
:103E1000FCF72DFA53EC1A2BFCF729FACDE908012F
:103E2000002008909DED080B53EC1A2B51EC100B61
:103E3000FCF7BEFA53EC1B2BFCF7BAFA53EC182B29
:103E4000FCF7B6FA53EC192BFCF7B5FA9FED381BCB
:103E500053EC112BFCF7B2FA9FED370B41EC180B2A
:103E600053EC102B9DED080B51EC100BFCF7A6FA50
:103E700053EC182BFCF7FBF99FED310B41EC180BC1
:103E800053EC102B9DED080B51EC100BFCF796FA40
:103E900053EC182BFCF7EBF941EC100B139810F0D6
:103EA000004F06D06D4251EC100B81F0004141EC07
:103EB000100B284684ED000B41E6000000000000D6
:103EC0000000000000000000FB21E93F7CD9024017
:103ED00000004054FB21F93F3163621A61B4D03DC8
:103EE000FB21F93F000000000000601A61B4D03DE2
:103EF0007370032E8A19A33BFB2139410000000097
:103F000083C8C96D305FE43F000000000000E03F5F
:103F1000FA0C0000480C0000000000000000103EF9
:103F2000000000000000103C000000000000103AFB
:103F3000182D4454FB21F93D3326A611460B113CA4
:103F400000000054FB21F93D10B52DED040B2DEDC3
:103F5000088B82B0B0EE419AF0EE619A0B9820F097
:103F600000449FED4BABB4F1795F11DA9DED0A0B84
:103F700051EC100BFCF728FC002801BFB0EE4A0AF8
:103F8000F0EE6A0A02B0BDEC088B04BF04B010BDAD
:103F90009DED0A0B53EC102B51EC100BFCF70EFAB5
:103FA00041EC180B3C480621B0EE480AF0EE680AD6
:103FB000784400F081F853EC182B51EC100BFCF70F
:103FC000FDF99DED0A0B41EC1B0B53EC192B51EC49
:103FD000100BFCF7F3F941EC190B53EC1B2B51ECD4
:103FE000180BFCF7EBF953EC192BFCF7E1F99FEDFB
:103FF0002C0B41EC190B53EC102B51EC180BFCF76C
:10400000DDF941EC100B2848844210DA53EC192BEF
:1040100051EC100BFCF7CCF953EC1A2BFCF7CBF955
:1040200041EC100B02B0BDEC088B04B010BD1F4872
:10403000A042BCBF9FED1E1B8DED001B06DBA4F54F
:1040400000100190002000909DED001B51EC100B22
:1040500053EC112BFCF7ACF99DED000B41EC180B68
:1040600053EC102B51EC1A0BFCF7A2F941EC1A0B94
:1040700053EC192B51EC180BFCF79AF953EC1A2B53
:10408000FCF799F941EC100BCCE7000000000000B0
:10409000000000000000F03F6C090000000000007C
:1040A000000000000000E03F3333D33F0000E93F51
:1040B000000000000000D23F70B504462DED028BD9
:1040C0004D1E00EBC500B0EE408AF0EE608A90ED28
:1040D000000B35F0060017D053EC182B51EC100BE9
:1040E000FCF76CF941EC100B6D1E04EBC50090ED74
:1040F000001B51EC100B53EC112BFCF7B8F841EC02
:10410000100B35F00600E7D1022D36D0042D1CD05F
:10411000062D1CBFBDEC028B70BD53EC182B51EC6F
:10412000100BFCF74BF994ED0A1B53EC112BFCF729
:104130009EF853EC182BFCF741F994ED081B53EC57
:10414000112BFCF794F841EC100B53EC182B51ECAD
:10415000100BFCF733F994ED061B53EC112BFCF715
:1041600086F853EC182BFCF729F994ED040B53EC6B
:10417000102BFCF77CF841EC100B53EC182B51EC96
:10418000100BFCF71BF994ED021B53EC112BFCF701
:104190006EF853EC182BFCF711F994ED001B53EC5F
:1041A000112BFCF764F8BDEC028B41EC100B70BDD9
:1041B00031B504462DED040B2DED0A8BB0EE41BA5E
:1041C000F0EE61BA0B989DED0A0B20F00040B0F1C3
:1041D000795F0DDA51EC100BFFF7A7FB042808BF3D
:1041E00000F09AF89DED0A0BBDEC0A8B05B030BDCE
:1041F00053EC102B51EC100BFCF7E0F841EC180BD2
:104200009DED0A0B53EC182B51EC100BFCF7D6F874
:1042100041EC190B2C48B0EE480AF0EE680A052173
:104220007844FFF749FF9FED2ACBB0EE40AAF0EEAD
:1042300060AA9CB353EC1C2B51EC190BFCF7BEF895
:1042400041EC1C0B53EC1A2B51EC190BFCF7B6F894
:104250009FED210B41EC190B53EC102B51EC1B0B78
:10426000FCF7ACF853EC192BFCF7A2F853EC182B25
:10427000FCF7A4F853EC1B2BFCF79AF853EC1C2B1F
:10428000FCF796F89DED0A1B53EC112BFCF793F805
:10429000BDEC0A8B05B041EC100B30BDFFE753ECD1
:1042A0001A2B51EC180BFCF789F853EC1C2BFBF77D
:1042B000DEFF53EC192BFCF781F89DED0A1B53EC44
:1042C000112BFBF7D4FFE3E7F40700000000000028
:1042D000495555555555C5BF000000000000E03F49
:1042E00010B553EC102B51EC100BFBF7C0FF41EC59
:1042F000100B10BD000000009FED050B10B553EC36
:10430000102B51EC100BFCF7CBF841EC100B10BD4F
:1043100000000000000000009FED050B10B553ECFD
:10432000102B51EC100BFCF749F841EC100B10BDB1
:10433000000000000000001002E008C8121F08C1C1
:10434000002AFAD170477047002001E001C1121F16
:10435000002AFBD170470000014908607047000047
:104360001C0000202DE9F0414B4E4C4CB6F90000EA
:1043700000EE100AB4F90000F8EEC00A00EE100AD0
:104380000620B8EEC00AFEF7C3FEBDEEC00A444DDB
:1043900010EE100A25F83C0FB6F91C0000EE100ACA
:1043A000B4F90200F8EEC00A00EE100A0720B8EED9
:1043B000C00AFEF7ADFEBDEEC00A10EE100A68801E
:1043C000B6F9380000EE100AB4F90400F8EEC00A9D
:1043D00000EE100A0820B8EEC00AFEF799FEBDEE06
:1043E000C00A10EE100AA880B6F9540000EE100AB8
:1043F000B4F90600F8EEC00A00EE100A0920B8EE83
:10440000C00AFEF785FEBDEEC00A10EE100AE88075
:104410002348A17C3C30804600F0E8F8217D4046EE
:1044200000F0E4F84FF400714046FCF7F3F9002780
:104430002F806F8096ED1E0A0420F8EEC00A94EDDE
:10444000020AB8EEC00AFEF763FEBDEEC00AB6F976
:10445000701010EE100A00EE101A00B2F8EEC00A4A
:1044600000EE100A0520B8EEC00AFEF751FEBDEEC0
:10447000C00A10EE100AA880EF80217C404600F0B0
:10448000B5F8217D404600F0B1F84046BDE8F04166
:1044900040F2FF11FCF7BEB9E8040020A808002094
:1044A00020000020064810B530F8241F02798A1A2F
:1044B00042800171FEF764FCBDE81040FCF7EABAE7
:1044C000A808002010B5052000F054F8042000F0E2
:1044D00051F8FFF7E7FFBDE81040FFF743BF82B098
:1044E000CDE9000121F0004001909DED000B02B0EC
:1044F00051EC100B70470000C0EBC001084800EB06
:104500008100C18A491C09B2C182012904D0022953
:1045100001DD0221C18270474188C180018370475B
:10452000E80400200A8852BA42804A8852BA0280BF
:104530008A8852BA82818979C1817047FDF70EFA63
:10454000FEF78CFFFEF750FDFEF738FDFEF7D6FCB8
:10455000FEF704FDFEF7A2FDFEF7BCFDFEF77CFDB5
:10456000FCF790F9FFF76EF9FFF744F8FCF700FA53
:10457000FEE700001C4BC0EBC00100B503EB81025D
:10458000518800292ED0FFF7B7FFB2F90200B2F927
:104590000610411AB1F5805F02DD118A491E04E060
:1045A00011F5805F02DA118A491C1182B2F91010EC
:1045B000C1EB413101449160D080B3F89400B3F86D
:1045C000A410401A00B241F6FE71A3F8A000884280
:1045D00001DD401A04E041F6FE72D04202DA0844DE
:1045E000A3F8A00000BD0000E8040020002903D1CA
:1045F000018041808180C18070470006101600064E
:104600001016005EBCE2613FDD83C29C7E20A3FDEC
:104610001F419DC3217FFCA2401E5F01E3BD3E60A0
:1046200082DC237D9FC1421CFEA0E1BF5D0380DED2
:104630003C62BEE0025CDF81633D7C22C09E1D4384
:10464000A1FF4618FAA427799BC584DA3866E5BB32
:104650005907DB856739BAE406581947A5FB782660
:10466000C49A653BD987045AB8E6A7F91B45C69892
:104670007A24F8A6441A99C7257B3A6486D85B0544
:10468000E7B98CD2306EEDB3510F4E10F2AC2F71F2
:1046900093CD114FADF3702ECC92D38D6F31B2EC20
:1046A0000E50AFF1134DCE90722C6D33D18F0C5252
:1046B000B0EE326C8ED0530DEFB1F0AE4C1291CF04
:1046C0002D73CA947628ABF517490856B4EA6937B2
:1046D000D58B5709EBB536688AD495CB2977F4AAE0
:1046E0004816E9B7550B88D6346A2B7597C94A1412
:1046F000F6A8742AC896154BA9F7B6E80A54D789C4
:104700006B350000891112239B322446AD57366564
:10471000BF74488CC19D5AAFD3BE6CCAE5DB7EE93D
:10472000F7F88110080193331A22A5562C47B77564
:104730003E64C99C408DDBBF52AEEDDA64CBFFF91D
:1047400076E802218B30100299132667AF76344445
:10475000BD554AADC3BC588ED19F6EEBE7FA7CC8FD
:10476000F5D983310A2091121803A7772E66B55424
:104770003C45CBBD42ACD99E508FEFFB66EAFDD8DD
:1047800074C904428D5316619F702004A915322705
:10479000BB364CCEC5DF5EEDD7FC6888E1997AABBD
:1047A000F3BA85520C4397711E60A1142805B337E4
:1047B0003A26CDDE44CFDFFD56ECE9986089FBBB9D
:1047C00072AA06638F7214409D512225AB343006C5
:1047D000B9174EEFC7FE5CCCD5DD6AA9E3B8788A7D
:1047E000F19B87730E6295501C41A3352A24B116A4
:1047F0003807CFFF46EEDDDC54CDEBB962A8F99A5D
:10480000708B088481951AA793B62CC2A5D33EE17C
:10481000B7F04008C919522BDB3A644EED5F766D54
:10482000FF7C899400859BB712A6ADD224C3BFF14B
:1048300036E0C1184809D33B5A2AE55E6C4FF77D34
:104840007E6C0AA583B4188691972EE3A7F23CC02C
:10485000B5D14229CB38500AD91B666FEF7E744C14
:10486000FD5D8BB502A499961087AFF326E2BDD00B
:1048700034C1C3394A28D11A580BE77F6E6EF55CF4
:104880007C4D0CC685D71EE597F42880A1913AA3EC
:10489000B3B2444ACD5B5669DF78600CE91D722FD4
:1048A000FB3E8DD604C79FF516E4A9902081BBB3CB
:1048B00032A2C55A4C4BD7795E68E11C680DF33FB4
:1048C0007A2E0EE787F61CC495D52AA1A3B03882AC
:1048D000B193466BCF7A5448DD59622DEB3C700E94
:1048E000F91F8FF706E69DD414C5ABB122A0B9928B
:1048F0003083C77B4E6AD5585C49E33D6A2CF11E74
:10490000780F000000000000000001020304060709
:10491000080900000000010203040000000000007C
:104920004C5555555555A53F7751C1166CC156BFCD
:104930009015CB19A001FA3EAD529C804F7E92BEDD
:10494000C4B1B4BD9EEE213ED43888BEE9FAA8BDFC
:1049500000004054FB21F93F3163621A61B4D03D3D
:104960000000601A61B4D03D7370032E8A19A33B16
:104970000000002E8A19A33BC14920259A837B3968
:1049800000000000000000006E83F9A22915444ECB
:10499000D15727FCC0DD34F5999562DB4190433C4B
:1049A000AB6351FE61C5BBDE3A6E24B7E0D24D4227
:1049B000EA2E49061C92D1091CEB1DFE3EA729B127
:1049C000F53582E88444BB2E26709CE9417E5FB4B5
:1049D00039D69139F43953838B5F849C3B28F9BDD8
:1049E000FF97F81F0F9805DE8B112FEF1F6D0A5AE6
:1049F000CF7E366DB709CB27663F464F2DEA5F9EC7
:104A0000C7BA27757BF1E5EBF739073DEA92528A81
:104A1000B15FFB6B085D8D1FA6F810111111813F6E
:104A2000D561C119A0012ABF7DFEB157E31DC73E64
:104A3000EB9C2B8AE6E55ABE7CD5CF5A3AD9E53DA8
:104A4000604A0008000000202000000038430008F1
:104A5000804A000820000020F00C000048430008B5
:104A60000000000001000000100000000000000035
:104A70000000FFFF000000000024F4000000000020
:040000050800018965
:00000001FF
