:020000040800F2
:10000000B84B0020610200085B2B00081D26000889
:10001000592B0008910300087D35000800000000FE
:10002000000000000000000000000000A101000826
:100030001908000800000000FD0100081530000844
:100040007B0200087B0200087B0200087B0200089C
:100050007B0200087B0200087B0200087B0200088C
:100060007B0200087B0200087B0200087B0200087C
:100070007B020008410500087B0200087B020008A3
:100080004D0500087B0200087B0200087B02000887
:10009000950300087B0200087B0200087B02000831
:1000A0007B0200087B0200087B0200087B0200083C
:1000B0007B0200087B0200087B0200087B0200082C
:1000C0007B0200087B0200087B0200087B0200081C
:1000D0007B0200087B0200088D3400087B020008C8
:1000E0007B0200087B0200087B0200087B020008FC
:1000F0007B020008F93000087B0200087B02000840
:100100007B0200087B0200087B0200087B020008DB
:10011000E9310008013200087B020008ED300008D8
:100120007B0200087B0200087B0200087B020008BB
:100130007B02000800000000000000007B020008B5
:10014000050400087B0200087B0200087B0200080F
:100150007B0200087B0200087B0200087135000862
:100160007B0200087B0200087B0200087B0200087B
:100170007B0200087B020008000000000000000075
:100180007B0200087B020008DFF810D000F0EEF8D8
:1001900000480047FD390008AFF30080B84B00204D
:1001A0002C4B19680868B0E8F04F80F30988BFF35A
:1001B0006F8F4FF0000080F311887047000000003F
:1001C00008480068006880F308884FF0000080F35A
:1001D000148862B661B6BFF34F8FBFF36F8F00DF35
:1001E00000BF00BF08ED00E0DFF80C00016841F43B
:1001F00070010160704700BF88ED00E0EFF30980F7
:10020000BFF36F8F134B1A681EF0100F08BF20ED5D
:10021000108A20E9F04F106009B44FF0500080F3CD
:100220001188BFF34F8FBFF36F8F04F067F84FF063
:10023000000080F3118809BC19680868B0E8F04F25
:100240001EF0100F08BFB0EC108A80F30988BFF3CE
:100250006F8F70474C000020EFF30580704700005F
:100260000648804706480047FEE7FEE7FEE7FEE750
:10027000FEE7FEE7FEE7FEE7FEE7FEE7DD3000080B
:10028000890100082DE9F05F0546002092469B4653
:1002900088460646814640241BE02846414647469C
:1002A000224600F053F853465A46C01A914110D3E3
:1002B00011461846224600F03AF82D1A67EB01085D
:1002C0004F4622460120002100F031F817EB0009CB
:1002D0004E41201EA4F10104DFDC484631462A4687
:1002E0004346BDE8F09F40EA01039B0703D009E0C5
:1002F00008C9121F08C0042AFAD203E011F8013B12
:1003000000F8013B521EF9D27047D2B201E000F86A
:10031000012B491EFBD270470022F6E710B51346A9
:100320000A4604461946FFF7F0FF204610BD202A72
:1003300004DB203A00FA02F1002070479140C2F13C
:10034000200320FA03F3194390407047202A04DB6E
:10035000203A21FA02F00021704721FA02F3D0403E
:10036000C2F120029140084319467047064C074DE0
:1003700006E0E06840F0010394E807009847103475
:10038000AC42F6D3FFF704FF0047000820470008FF
:10039000FEE70000014800F050BC00009803002078
:1003A0000EB5174A0823D161002111625162C2E9DA
:1003B0000A1382F83010018802AB090A8DF8001088
:1003C00001788DF8011041886A46090A8DF80210FB
:1003D00081788DF803108188090A8DF8041001795D
:1003E0008DF80510C188090A8DF806100449807936
:1003F0008DF807001C3101F1740000F0B5FA0EBD54
:1004000008030020014800F018BC0000C0030020D1
:100410000EB5174A08231166002151669166C2E99C
:100420001B1382F87410018802AB090A8DF80010C2
:1004300001788DF8011041886A46090A8DF802108A
:1004400081788DF803108188090A8DF804100179EC
:100450008DF80510C188090A8DF8061004498079C5
:100460008DF80700603101F1580000F07DFA0EBDF3
:10047000080300200EB5154A0823116600215166B5
:100480009166C2E91B1382F8741001788DF8001090
:1004900041788DF8011081788DF80210C1788DF8BF
:1004A000031001798DF8041041798DF805108179D8
:1004B0008DF806100549C0798DF80700603102AB50
:1004C0006A4601F1580000F04FFA0EBD0803002003
:1004D00010B50221084800F035FA074802212830FB
:1004E00000F030FA044800F0BFFD0348BDE81040BA
:1004F000283000F0B9BD00009803002010B5044674
:1005000000680C49884206D10B4B0021A3F134024C
:10051000204600F018FB09492068884209D1064BA3
:1005200020464433BDE81040A3F13402002100F01E
:100530000ABB10BD006400403C030020006800407E
:10054000014800F01FBE00005C050020014800F0DB
:1005500019BE0000BC0500202DE9F04F856800247D
:10056000099E802D18D0894DC563894D456490F84A
:100570003450012D15D0012580F8345090F83550B5
:10058000012D10D0002180F834100224002180F8C1
:1005900034102046BDE8F08F4FF480714165012092
:1005A000F8E70220F6E7022580F83550002545657A
:1005B00005682F6847F480272F6005682B61036862
:1005C0005E608368402B03682AD099600168CA6026
:1005D000714D704E704FDFF8BC81DFF8B891DFF8D5
:1005E000B8A1DFF8B4B1EA14DFF8A8E10168183661
:1005F00030379302A9F148090AF1600A0BF1180B90
:10060000AEF1300E4FF0006C41452DD9A94205D016
:10061000494503D0514501D0B14205D1202220E007
:100620009A600268D160D3E759451AD0714518D055
:10063000594D7835A94214D0564D3035A94210D0C5
:10064000B9420BD0534A183A914207D0524A9032DD
:10065000914203D04F4A4832914201D11A4600E0FC
:1006600062464C494C392EE0DFF82C8108F1A8088D
:1006700041452AD9A94205D0494503D0514501D069
:10068000B14201D120221CE059451AD0714518D041
:10069000414D7835A94214D03E4D3035A94210D095
:1006A000B9420BD03B4A183A914207D03A4A9032AD
:1006B000914203D0374A4832914201D11A4600E0B4
:1006C0006246344950390A605AE0DFF8CC8008F1BC
:1006D000480841452AD9A94205D0494503D051458A
:1006E00001D0B14201D120221CE059451AD07145F8
:1006F00018D0294D7835A94214D0264D3035A9425D
:1007000010D0B9420BD0234A183A914207D0224A5E
:100710009032914203D01F4A4832914201D11A4689
:1007200000E062461C491039CA6029E0A94205D0A0
:10073000494503D0514501D0B14201D120221CE0EE
:1007400059451AD0714518D0134D7835A94214D0A7
:10075000104D3035A94210D0B9420BD00D4A183A8D
:10076000914207D00C4A9032914203D0094A483254
:10077000914201D11A4600E06246074910398A6069
:1007800001680A6842F001020A60FFE66536000867
:10079000793600085864024010600240016818234E
:1007A000CAB2103AB2FBF3F2054B6FF30901032A08
:1007B0009B5CC36500D9091D816508467047000030
:1007C000C446000810B5014600208B698A6A4FF0C4
:1007D000C07453B1B3F5005F15D072B1012A0CD0CB
:1007E000022A0AD0032A09D104E01AB1012A06D04C
:1007F000022A03D1C96AC90100D5012010BDC96A06
:10080000A142FAD010BD002AF7D0012AF2D0022A64
:10081000F3D0032AF3D010BD704772B6FEE7000094
:100820003A4900203A4AC874887408754875888126
:100830009076D076107750770883C8810882354843
:10084000B2EE0E0A9FED351A80ED060A9FED320AD0
:10085000DFED330A80ED070A80ED080A80ED051A06
:10086000DFED301AC0ED090A9FED2F2AC0ED0A1AFC
:1008700080ED112A9FED2D2AF2EE0A2A80ED122A30
:1008800080ED130A80ED100A9FED292AC0ED140AAD
:1008900080ED152AC0ED1C2A80ED1D0A80ED1E0A90
:1008A00080ED1B1AC0ED1F0AC0ED201A9FED211A22
:1008B000DFED221A80ED271AB7EE001A80ED281A14
:1008C00080ED290A80ED260AC0ED2A0A80ED2B2A48
:1008D000F1EE0C0AC0ED740A80ED750A80ED760A1F
:1008E0009FED151A80ED730A80ED771AC0ED781A26
:1008F000C0ED7F0A80ED800A80ED810A80ED7E0ADE
:1009000080ED821AC0ED831A70470000740A00203F
:10091000540700200C08002000000000CDCC4C3D06
:1009200000401C4600409C4600008C43CDCC4C3F10
:1009300000B0B3460000A54300803B4500007A4666
:1009400003F050B890F82020012A07D0022A05D0E1
:10095000416A41F480214162012070470068426988
:100960000A43426100207047F0B590F820500468B7
:10097000A468012D05D0022D03D0416A41F48021E5
:1009800057E014F0406F01D1E5004FD5C4F3016486
:100990000125A5401D608D684FF4C0739DB1CE68E0
:1009A00035434E6845EAC605066803EB0417F55162
:1009B0004FF4C275076805EB04150E697E51097D79
:1009C000012905D009E00E88CD6845EA4655EBE7D8
:1009D00001684E5946F480764E511179D579567991
:1009E00041EA056195792D0445EA062529434FF42E
:1009F000C676056806EB0416A9511178D57841EA48
:100A00000561957852782D0445EA022211434FF48E
:100A1000C475026805EB04155151006803EB04111D
:100A2000425842F0010242500020F0BD416A41F4B8
:100A3000001141620120F0BD10B590F82020012A7C
:100A400007D0022A05D0416A41F480214162012089
:100A500010BD3B48D0F8002242F00102C0F800224D
:100A6000D0F8002222F47C52C0F80022D0F80022F4
:100A70004B6A42EA0322C0F800220A7D02F01F03FB
:100A800001229A40D0F81C329343C0F81C32CB6943
:100A9000B3B9D0F80C329343C0F80C328C894B6850
:100AA00064F31F434C6900EBC404C4F840320C8962
:100AB0000B6864F31F434C6900EBC404C4F8443270
:100AC000CB69012B16D1D0F80C321343C0F80C328D
:100AD0000C884B6864F31F434C6900EBC404C4F8F2
:100AE00040320C89CB6864F31F434C6900EBC404AB
:100AF000C4F844328B69002BD0F804320ED0134373
:100B0000C0F804320B69002BD0F8143208D013431C
:100B1000C0F81432096A012904D008E09343EFE7D2
:100B20009343F5E7D0F81C121143C0F81C12D0F81B
:100B3000001221F00101C0F80012002010BD0000D9
:100B400000640040704770B590F82040012C05D03B
:100B5000022C03D0416A41F4802128E0046809B3E3
:100B60002469A40720D04FF4D874056804EB01145D
:100B70002D5915F00405956005682D591AD0ED081A
:100B8000556005682C5904F00204D4604FF4DA74FF
:100B9000056804EB01142E5906F00F06082E0CD33D
:100BA00008250DE0E468DCE7416A41F40011416288
:100BB000012070BD6D0D1560E3E72D5905F00F059F
:100BC000156105682D59C5F30725956105682C59F0
:100BD000240C54614FF4DC72046802EB0112A45837
:100BE0001C700468A458240A5C700468A458240C7F
:100BF0009C700468A258120EDA704FF4DE7204681A
:100C000002EB0112A4581C710468A458240A5C71F8
:100C10000468A458240C9C710468A258120EDA715E
:100C2000006829B1016941F020010161002070BD17
:100C3000C16841F02001C160F8E72DE9F05F054689
:100C4000006800244669D0F804908768D0F80CB09A
:100C5000D0F810A0D0F81880F10748D0F90714D0C8
:100C600001218160B80703D5284600F02AFA0CE07C
:100C7000780702D54FF4006407E0380702D54FF437
:100C8000805402E0284600F01BFAF80516D52968C2
:100C90004FF480708860B80503D5284600F013FA39
:100CA0000CE0780502D544F4005407E0380502D57D
:100CB00044F4804402E0284600F004FAF80316D514
:100CC00029684FF480308860B80303D5284600F0C7
:100CD000FCF90CE0780302D544F4004407E0380343
:100CE00002D544F4803402E0284600F0EDF93007E4
:100CF00007D55FEACB6004D52968102044F400745E
:100D0000C86070074FF0080707D55FEA0B7004D57D
:100D10002868C760284600F09BF9B00706D5286808
:100D2000C068800702D0284600F093F9700607D506
:100D30005FEACA6004D52968102044F48064086121
:100D4000B00607D55FEA0A7004D52868076128460F
:100D500000F086F9F00606D528680069800702D001
:100D6000284600F07EF9B00308D55FEAC96005D5D2
:100D7000296810204860284600F074F9F00307D570
:100D80005FEA097004D528684760284600F09EF99C
:100D9000300446D55FEA497040D5F00504D55FEAD6
:100DA000C87001D044F00104B00504D55FEA887032
:100DB00001D544F00204700504D55FEA487001D5FE
:100DC00044F00404300529D518F0700F26D008F03F
:100DD0007000402815D006DC102809D020280AD041
:100DE000302816D10AE050280ED0602811D10EE02C
:100DF00044F008040DE044F010040AE044F020043C
:100E000007E044F0400404E044F0800401E044F4CE
:100E100080742868816921F070018161296804204B
:100E20004860002C05D0686A204368622846FFF7B6
:100E300089FEBDE8F09F70B5040003D094F820004F
:100E400010B104E0012070BD204600F081F8206858
:100E5000016841F00101016000F0CCFB0546052668
:100E600004E000F0C7FB401B0A2811D82068406846
:100E7000C007F6D02068016821F00201016000F08F
:100E8000B9FB05460BE000F0B5FB401B0A2806D96C
:100E9000606A40F40030606284F82060D2E7206825
:100EA00040688007EFD4207E0128206801683DD08B
:100EB00021F080010160607E01282068016838D03F
:100EC00021F040010160A07E01282068016833D034
:100ED00021F020010160E07E0128206801682ED009
:100EE00041F010010160207F01282068016829D0AD
:100EF00021F008010160607F01282068016824D08A
:100F000021F004010160D4E902010843D4E904128C
:100F1000114308436168491E08432168C8610020E5
:100F20006062012084F82000002070BD41F0800143
:100F3000C0E741F04001C5E741F02001CAE721F0D8
:100F40001001CFE741F00801D4E741F00401D9E7EF
:100F5000F0B587B0044614216846FFF7DDF9374B3A
:100F60003748DFF8D4E01968D4F800C0344A0225C5
:100F70000326092710300024491CF44524D11960A8
:100F8000012907D1016841F000710160006800F09B
:100F900000700590106840F001001060106802AB0E
:100FA00000F0010005904FF4C050CDE9000583E842
:100FB000D0006946234800F01FFA002207211420C0
:100FC00000F0BCFB142033E0DFF87CE0F44531D1C5
:100FD000D0F800C04CF0806CC0F800C0D0F800C061
:100FE00001290CF0806CCDF814C0196007D101689C
:100FF00041F000710160006800F000700590106819
:1010000040F002001060106802AB00F00200059092
:101010004FF44050CDE9000583E8D00069460B4805
:1010200000F0EAF900220821402000F087FB402070
:1010300000F076FB07B0F0BD00640040080000201F
:1010400030380240000002400068004000040240C6
:10105000704710B5FFF752FABDE8104001F0DCBB55
:10106000704770477047000070B5044690F8200044
:10107000012804D0606A40F40020606218E0022079
:1010800084F820002068016821F00101016000F06F
:10109000B1FA05460EE000BF00F0ACFA401B0A288A
:1010A00008D9606A40F400306062052084F82000AE
:1010B000012070BD20684068C007EDD1606270BD3E
:1010C00070477047704770477047704770472DE909
:1010D000F0410446876D00F08DFA064694F835001D
:1010E0000025022806D08020606584F83450012055
:1010F000BDE8F0812068016821F0160101602068D8
:10110000416921F080014161206C08B9A06C20B1D7
:101110002068016821F0080101602068016821F061
:10112000010101600CE000F065FA801B052807D979
:1011300020206065032084F8350084F83450D7E718
:1011400020680068C007EED194F85C103F2088400A
:10115000B860012084F8350084F834500020C7E7D7
:1011600090F83510022903D0802141650120704795
:10117000052180F835100068016821F00101016047
:10118000002070472DE9F84304464FF00009CDF8E0
:10119000009063484FF41651A56D0068B0FBF1F75D
:1011A0002E6894F85C10082000FA01F131420FD04B
:1011B00021680A6852070BD50A6822F004020A6007
:1011C00094F85C108840A860606D40F00100606594
:1011D00094F85C104FF0010808FA01F0304208D092
:1011E00021684969090604D5A860606D40F00200D5
:1011F000606594F85C1004208840304208D0216873
:101200000968890704D5A860606D40F00400606536
:1012100094F85C1010208840304218D0216809688A
:10122000090714D5A86020680168490304D500683F
:10123000000308D5A16C07E00168C90503D4016863
:1012400021F008010160216C09B12046884794F81B
:101250005C1020208840304231D021680968C906DE
:101260002DD5A86094F8350005282068016806D0BF
:10127000490347D5006800031DD4616C1CE021F0D0
:10128000160101602068416921F080014161206CF4
:1012900008B9A06C20B12068016821F00801016044
:1012A00094F85C103F208840A86084F8358084F86A
:1012B0003490216D1FE0E16B09B120468847606DD5
:1012C00000282BD0606DC00714D0052084F83500AD
:1012D0002068016821F0010101600098401C009025
:1012E000B84203D820680068C007F6D184F835807A
:1012F00084F83490E16C002910D001B02046BDE89C
:10130000F04308470168C905D5D4016821F01001F0
:10131000016084F8358084F83490CCE7BDE8F88328
:10132000480000202DE9F041044600F063F906462C
:101330005CB1022084F83500002584F83450206820
:10134000016821F0010101600DE00120BDE8F0819C
:1013500000F050F9801B052805D920206065032086
:1013600084F83500F2E720680068C007F0D12268F1
:10137000116820480140D4E901031843D4E9033639
:101380003343184363691843A3691843E369184357
:10139000236A18430843616A042903D1D4E90B1373
:1013A00019430843106020684069666A20F007010D
:1013B00030460E43012704280CD1A06A0643E06A98
:1013C00040B12046FFF7FEF920B14020606584F867
:1013D0003570BAE7206846612046FFF7DFF994F8D8
:1013E0005C203F2191408160656584F83570002064
:1013F000ACE700003F8010F02DE9F84FDFF8BCA10A
:101400000022012503264FF00F090AF1040BAAF16F
:10141000040E00BF0B6805FA02F42340A34270D10A
:101420000F7907F00307012F01D0022F16D187682B
:101430004FEA420806FA08FC27EA0C07D1F80CC06C
:101440000CFA08FC4CEA070CC0F808C04768A74330
:101450000C79C4F3001494403C4344600C79E44399
:10146000A4070AD0C4684FEA420C06FA0CF7BC4342
:101470008F6807FA0CF72743C7600C7904F0030460
:10148000022C12D1D40800EB840CDCF82040570762
:10149000FF0E09FA07F824EA0804D1F8108008FAC8
:1014A00007F848EA0408CCF8208004684FEA420CA8
:1014B00006FA0CF7BC430F7907F0030707FA0CF79D
:1014C000274307604C6814F4403F70D03C4C2768B9
:1014D00047F480472760246822F0030704F480441F
:1014E0000094384C07EB040CDCF8084897074FEAE7
:1014F000177809FA08F7BC43334FB84202D10027E6
:1015000024E054E0314FB84201D101271EE0304FB2
:10151000B84201D1022719E02E4FB84201D103276A
:1015200014E02D4FB84201D104270FE02B4FB842F1
:1015300001D105270AE02A4FB84201D1062705E06C
:10154000284FB84201D1072700E0082707FA08F71B
:101550002743CCF80878DAF800405746D1F804C0A1
:101560009C435FEACC2C00D51C433C60DBF8004078
:101570005F46D1F804C09C435FEA8C2C00D51C4325
:101580003C60DEF800407746D1F804C09C435FEA37
:101590008C3C00D51C433C60084F083F3C68D1F8A8
:1015A00004C09C435FEACC3C00D51C433C60521C09
:1015B000102AFFF42FAFBDE8F88F0000083C01406F
:1015C0004438024000300140000002400004024064
:1015D00000080240000C02400010024000140240CB
:1015E00000180240001C02400069084000D00120A1
:1015F000704700000148806870470000100000201C
:1016000000684AF6AA2101600020704702488168FC
:101610000278114481607047100000200B4810B51B
:10162000016841F400710160016841F4806101606A
:10163000016841F480710160032000F09FF80F20E1
:1016400000F006F800F050F8002010BD003C024009
:1016500030B505461F4887B00024016841F4807109
:101660000160006806A900F48070009001A800F0F5
:1016700043F90498A8B100F05FF940001649174AF1
:10168000B0FBF1F11648491E026040F2E732C0E9B2
:101690000324C0E90114846100F0A0FB040003D01E
:1016A00015E000F049F9E9E70D4800F0E3FB04001C
:1016B0000DD12D2000F034F8102D07D2002229463C
:1016C0002D2000F03BF80748056000E0012407B03A
:1016D000204630BD4038024040420F00002000400C
:1016E0001C060020140000200C4882B0016841F460
:1016F00080410160006800F4804000900748001FAE
:10170000016841F0805101600068002200F08050C3
:1017100000900F21901E02B000F010B84438024033
:10172000002809DB00F01F020121914040098000E0
:1017300000F1E020C0F8001170470000F0B40E4B3B
:101740001B680C46C3F30223C3F10705042D00D91F
:101750000425191D072901D2002300E0DB1E012604
:1017600006FA05F1491E214099409E40761E16401A
:101770003143F0BC01F040BF0CED00E0064900F041
:10178000070208684FF6FF03184040EA0220034AA8
:1017900010430860704700000CED00E00000FA05FF
:1017A000BFF34F8F05480168054A01F4E06111431A
:1017B0000160BFF34F8F00BFFDE700000CED00E0BC
:1017C0000400FA052DE9F0470E46050065D0DFF864
:1017D0001481D8F80000F7B200F00700B04207D239
:1017E00088F80070D8F8000000F00700B04254D12B
:1017F00028683D4C810712D5400703D5206840F486
:10180000E05020602878000703D5206840F460404D
:1018100020602068A96820F0F00008432060287844
:10182000C0072DD0304968680839012812D0022835
:1018300013D0032811D00968890700292DDA2168FF
:1018400021F0030101432160FFF7D4FE814641F2FC
:10185000883A0EE009688903EFE709688901ECE737
:10186000FFF7C8FEA0EB0901514502D90320BDE8EE
:10187000F0872068696800F00C00B0EB810FEFD1B1
:10188000D8F80010404601F00701B14207D90770AF
:10189000006800F00700B04201D00120E7E7287897
:1018A000400705D52068E96820F4E050084320602F
:1018B0002878000706D52068296920F4604040EAAE
:1018C000C100206000F058F82168084AC1F30311F4
:1018D000515CC8400649086006480068FFF7B8FE3A
:1018E0000020C4E7003C024008380240CC46000813
:1018F00048000020140000200F2202600C4A1368E8
:1019000003F003034360136803F0F003836013687C
:1019100003F4E053C36012684FF4E05303EAD202C9
:1019200002610448006800F007000860704700008A
:1019300008380240003C0240044805490068096834
:10194000044AC1F38221515CC8407047480000201E
:1019500008380240DC460008044805490068096868
:10196000044AC1F34231515CC8407047480000202E
:1019700008380240DC460008154810B5006810F031
:101980000C02144813D01449042A0FD0082A0ED18F
:101990000F4C241F2268236802F03F025B0207D528
:1019A0002068C0F38810A0FB010106E0084610BDC6
:1019B0002168C1F38811A1FB00010023FEF762FC3E
:1019C0002168C1F30141491C4900B0FBF1F010BD91
:1019D000083802400024F40040787D012DE9F84FDA
:1019E00004006ED02078DFF84C93C007A9F10405FD
:1019F0004AD009F104000168C1F38101012908D02E
:101A00000068C0F3810002280AD1D9F80000400222
:101A100006D52868800337D560680028E1D033E018
:101A20006068B0F5803F10D0B0F5A02F286810D0C6
:101A300020F480302860286820F4802028606068C6
:101A4000A8B1FFF7D7FD06460DE0286840F48030C6
:101A5000F4E740F480202860F7E700BFFFF7CAFDF5
:101A6000801B642873D828688003F7D50CE0FFF743
:101A7000C1FD064605E000BFFFF7BCFD801B6428E2
:101A8000F0D828688003F7D42078DFF8AC8280078C
:101A90004FF0000A3ED5A748001D016811F00C0F59
:101AA00008D00068C0F3810002280BD1D9F80000EB
:101AB000400207D42868800716D5E068012800D1C5
:101AC00012E033E1E068B8B10120C8F80000FFF788
:101AD00091FD064605E000BFFFF78CFD801B022844
:101AE000C0D828688007F7D52868216920F0F80059
:101AF00040EAC10028600DE0C8F800A0FFF77AFDB9
:101B0000064604E0FFF776FD801B02281FD82868F0
:101B10008007F7D42078000722D5864F874861696F
:101B2000703771B101210160FFF764FD064604E0E2
:101B3000FFF760FD801B022809D838688007F7D5B9
:101B40000EE0C0F800A0FFF755FD064605E082E074
:101B5000FFF750FD801B02287DD838688007F7D436
:101B60002078400768D5DFF8CCB100270BF13C0B9B
:101B7000DBF80000C0000BD4DBF8001041F080510E
:101B8000CBF80010DBF80000012700F08050009037
:101B90006B4E3068C00510D4306840F480703060FF
:101BA000FFF728FD009005E0FFF724FD0099401A9B
:101BB000022850D83068C005F6D55E4EA0686C3655
:101BC00001280FD00528306810D020F001003060C7
:101BD000306820F004003060A068B8B1FFF70AFD5B
:101BE00000900FE0306840F00100F4E740F004009E
:101BF0003060F7E7FFF7FEFC0099411A41F28830A8
:101C0000814266D830688007F4D50EE0FFF7F2FC19
:101C1000009007E0FFF7EEFC0099411A41F288308E
:101C2000814256D830688007F4D42FB1DBF8001019
:101C300021F08051CBF80010A069C8B33D49091DBF
:101C40000968C1F3810102294AD00228504607D011
:101C5000C8F8600000E03CE0FFF7CCFC04463BE045
:101C60004746C8F86000FFF7C5FC064605E000BF20
:101C7000FFF7C0FC801B02282BD828688001F7D40E
:101C8000D4E907010843A16A2E4A490802EB014141
:101C9000626A41EA8211084394F82C1040EA01611B
:101CA000C9F8001001203866FFF7A4FC044606E0DE
:101CB0003EE000BFFFF79EFC001B022809D8286801
:101CC0008001F7D534E000BFFFF794FC001B022829
:101CD00002D90320BDE8F88F28688001F4D427E0FA
:101CE0000128F7D0D9F80000E26900F480019142A0
:101CF0001CD1226A00F03F01914217D147F6C07112
:101D0000626A0140B1EB821F10D1A26A4FF0FF332B
:101D100000F4403103EB5202B1EB024F06D194F8CC
:101D20002C1000F07060B0EB016F01D00120D1E702
:101D30000020CFE70438024000004742800E4742AF
:101D4000007000400000FFFF7047704770B590F8CA
:101D50003C20012A32D0012480F83C40022280F845
:101D60003D2003685A689D6822F070060A68324375
:101D70005A60134B02689A4214D0B2F1804F11D0CE
:101D8000104B9A420ED0104B9A420BD00F4B9A42F6
:101D900008D00F4B9A4205D00E4B9A4202D00E4B00
:101DA0009A4204D1496825F080031943916080F874
:101DB0003D40002180F83C10084670BD022070BDF7
:101DC000000001400004004000080040000C0040FA
:101DD00000040140004001400018004010B504001C
:101DE00003D094F83D0010B107E0012010BD0020A1
:101DF00084F83C00204600F01FF8022084F83D00E3
:101E0000211D206801F07EF9012084F8460084F845
:101E10003E0084F83F0084F8400084F8410084F8D4
:101E2000420084F8430084F8440084F8450084F8B4
:101E30003D00002010BD000008B500680B49884235
:101E400012D10B48016841F02001016000680022B6
:101E500000F0200000900F213720FFF76FFCBDE855
:101E600008403720FFF75CBC08BD000000140040AC
:101E70004038024090F83D10012901D00120704700
:101E8000022180F83D100168CA6842F00102CA6070
:101E900000681149884214D0B0F1804F11D00F4929
:101EA00088420ED00E4988420BD00E49884208D095
:101EB0000D49884205D00D49884202D00C4988421C
:101EC00004D1816801F00701062903D0016841F0BF
:101ED0000101016000207047000001400004004043
:101EE00000080040000C0040000401400040014098
:101EF0000018004070472DE9F04104460068C668AC
:101F000005694FF00007A90713D5B10711D5F91ED0
:101F1000016101202077206880698007204602D077
:101F2000FFF7E8FF04E000F07EF8204600F07CF8C0
:101F30002777680716D5700714D521686FF004005D
:101F40000861022020772068806910F4407F2046D5
:101F500002D0FFF7CFFF04E000F065F8204600F064
:101F600063F82777280715D5300713D521686FF058
:101F700008000861042020772068C0698007204697
:101F800002D0FFF7B7FF04E000F04DF8204600F064
:101F90004BF82777E80616D5F00614D521686FF0C0
:101FA00010000861082020772068C06910F4407F85
:101FB000204602D0FFF79EFF04E000F034F82046F0
:101FC00000F032F82777E80708D0F00706D021683C
:101FD0006FF001000861204600F028F8280608D5B7
:101FE000300606D521686FF0800008612046FFF7B3
:101FF000ABFE680608D5700606D521686FF0400074
:102000000861204600F02EF8A8060AD5B00608D5CB
:1020100021686FF0200008612046BDE8F041FFF71D
:1020200094BEBDE8F08170477047000010B50446CB
:1020300000680949884201D1FFF7E8FA074920689A
:10204000884208D10648FFF7DBFA01F0AFFCBDE893
:10205000104001F0A2BC10BD002000400014004060
:10206000E80300207047704770470000F8B501682A
:1020700004460868CA684B6910F00F0F4FF000055E
:1020800059D003F0010602F49077374365D0C107B9
:1020900005D0D10503D5616C41F0010161644107B0
:1020A00005D5D90703D0616C41F002016164810755
:1020B00005D5D90703D0616C41F0040161640107C3
:1020C00007D502F02001314303D0616C41F00801D3
:1020D0006164616C00293AD0800604D5900602D56F
:1020E000204601F0D0F820684069616CC0F3801090
:1020F000090700D460B3204601F09EF820684069CB
:10210000400621D52068143050E8001F21F040011E
:1021100040E80012002AF5D1E06BA8B16E490165D4
:10212000E06BFFF71DF8002811D0E06B016D01B0E6
:10213000BDE8F040084783060FD593060DD520462D
:10214000BDE8F84001F09FB82046FFF78DFFF8BDCD
:102150002046FFF789FF6564F8BD266B2023012E1A
:102160007DD1C6067BD5D60679D50868486800902B
:1021700048694FF00206400641D5E16B08684068A7
:102180000004000CE8D0A28D8242E5D9E085C86940
:10219000B0F5807F2DD020680C3050E8001F21F46E
:1021A000807140E80012002AF5D12068143050E810
:1021B000001F21F0010140E80012002AF5D120683B
:1021C000143050E8001F21F0400140E80012002ABE
:1021D000F5D184F84230256320680C3050E8001FA8
:1021E00021F0100140E80012002AF5D1E06BFEF763
:1021F0006EFF6663A08DE18D401A81B22AE0A08D4A
:10220000E18D401A81B2E08D0028A5D00029A3D02D
:1022100022680C3252E8000F20F4907042E8000768
:10222000002FF5D12068143050E8002F22F0010271
:1022300040E80027002FF5D184F84230256320685C
:102240000C3050E8002F22F0100240E80023002B51
:10225000F5D166632046FFF706FFF8BDFFE70506E8
:102260002BD5150629D594F841002128F5D1A06871
:10227000B0F5805F01D12069B0B1206A411C2162B4
:10228000216800784860E08C401E0004000CE08467
:10229000E3D12068C16821F08001C1602068C16875
:1022A00041F04001C160D8E7206A0088C0F308000F
:1022B0004860206A801C2062E5E74006CDD55006C4
:1022C000CBD5CA68204622F04002CA6084F841306B
:1022D00000F05EF9C1E700002932000870B5040083
:1022E00004D094F84100002510B106E0012070BD33
:1022F00084F84050204600F023F8242084F8410060
:102300002068C16821F40051C160204601F01CF82A
:102310002068016921F4904101612068416921F040
:102320002A0141612068C16841F40051C1606564BF
:10233000202084F8410084F842006563002070BDCD
:102340002DE9F04F87B0064614216846FDF7E4FFFB
:1023500075497548734B3268002410380325DFF83F
:10236000CCE14F054FF002084FF008094FF4806AA6
:102370004FF4807B9A4235D10A6842F400220A6009
:10238000096801F400210591016841F00101016033
:102390000068CDE9005800F00100CDE904906946DD
:1023A0007046CDE90245FFF727F8624D6048286086
:1023B000C5E90174C5E9034A6C61C5E9064B4FF4F0
:1023C0004030C5E908042846FEF7ACFF08B1FEF727
:1023D00024FAF563002206213420AE63FFF7AEF93C
:1023E000342036E0544BDFF854C19A4236D10A68A3
:1023F00042F480120A60096801F4801105910168B5
:1024000041F004010160016801F0040105910168D7
:1024100041F008010160006802AA00F00800059080
:102420009814CDE9000882E8300269466046FEF75C
:10243000E3FF0420CDE9000802AA694682E83002E1
:102440003F48FEF7D9FF002205213520FFF776F936
:102450003520FFF765F907B0BDE8F08F394B9A4298
:1024600039D10A6842F400320A60096801F4003187
:102470000591016841F0010101600068029400F0DB
:10248000010005900C20CDE900080720CDE903509C
:1024900069467046FEF7B0FF264D25486035483046
:1024A0002860C5E90174C5E9034A6C61C5E9064BBA
:1024B0004FF44030C5E908042846FEF733FF08B161
:1024C000FEF7ABF9F563002207212620AE63FFF784
:1024D00035F92620BDE71C498A42BCD11249091DA5
:1024E0000A6842F020020A60096801F020010591A3
:1024F000016841F004010160006802AA00F00400D4
:102500000590C020CDE9000882E8300269466046A7
:10251000FEF772FF002205214720FFF70FF9472041
:1025200097E70000004C00404038024000000240A5
:10253000406002405C05002000500040000802405E
:10254000000C0240004400400014014090F842306A
:10255000202B01D00220704721B11AB10023036360
:1025600000F078BF01207047074910B588420AD1B2
:102570000648007800F05AFCBDE8104001220349EB
:102580000148FFF7E3BF10BD840400200C000020C9
:102590007047000030B51F48B7EE000A017E837E09
:1025A00001F00102D31A82765CB2C1F34002C37E0D
:1025B000C276D31AC1F38005027F0577AA1AC1F348
:1025C000C005417F4577691A13485BB252B249B2E0
:1025D000641C05D1D0ED000A70EE800AC0ED000A3F
:1025E0005B1C05D1D0ED000A70EEC00AC0ED000AF8
:1025F000521C05D1D0ED010A70EE800AC0ED010A2F
:10260000491C05D1D0ED010A30EEC00A80ED010A67
:1026100030BD000054070020740A0020FFF7C0F806
:10262000FEE701680A68D20604D5C968C90601D563
:1026300001F094BC704700000B48017EC90704D02C
:102640000121C1748174017570470021C1748174C6
:102650000175064991ED020A80ED010A91ED0A0A21
:1026600080ED000A70470000740A00200C0700206B
:10267000104830F8182FC2F3C02183798171CB1A2A
:10268000C2F3C011027A01720B488A1A5BB2417D13
:1026900052B25B1C02D0521C02D005E0491C02E081
:1026A000C90705D000214175C80701D0FFF772BFE7
:1026B0007047000054070020740A002010B5FFF78F
:1026C000BBFF114C207EC00709D01048C07A0128FA
:1026D00006D000F043FAFFF7CBFF0020A07510BD35
:1026E0000B480C4990ED0A0AD1ED000A30EE200AA1
:1026F00084ED000A90ED020AD1ED010A012030EECE
:10270000200A84ED010AE9E7740A0020540700203A
:102710000C070020780700201F4900221F4891F96C
:102720001630012B0CD0022B12D0032B10D0B7EE99
:10273000000A80ED010A80ED000A8274C2747047BD
:1027400017498274C27491ED020A80ED010A704744
:10275000B1F90C20D0ED010A00EE102AB8EEC01A33
:102760009FED100A41EE400AC0ED010AB1F90E10CA
:10277000D0ED000A01EE101A4EF69001B8EEC11A23
:1027800041EE400AC0ED000A018141F270714181C1
:1027900001218174C174704754070020740A00201D
:1027A0000C0700206F12033AB0F900209FED0C1ABD
:1027B00000EE902AB1F900109FED080AF8EEE00A49
:1027C00060EE810A01EE101AB8EEC11A41EE000A5D
:1027D000BDEEE00A10EE101A01807047CDCC4C3EE1
:1027E000CDCC4C3F0A48C17F028BC1EBD231D20B1A
:1027F000C27749B20748491C02D1018B491C0183A9
:10280000007EC00701D0FFF759BFFFF785BF00006A
:1028100054070020740A0020124B00B5186803F119
:102820003401A0F50070013804D0012804D0052837
:1028300006D112E00C4801E00B48183000F036FFDA
:10284000586CA0F5007005380AD106490648783161
:1028500018385DF804EB00F029BF03483030EDE78D
:1028600000BD000008030020C407002030B5164852
:102870008BB01449016006210024C0E90114C90588
:10288000C160091201614FF4801141610476012594
:1028900045768576C57604774477FEF7CCFA08B19D
:1028A000FDF7BBFFCDE90645059508950494009416
:1028B00001940294694604480394FEF7BDF80BB0F6
:1028C00030BD0000006400409803002030B5164879
:1028D0008BB01449016006210024C0E90114C90528
:1028E000C160091201614FF4801141610476012534
:1028F00045768576C57604774477FEF79CFA08B16D
:10290000FDF78BFF05A90F2081E83100089504949D
:10291000009401940294694603480394FEF78CF8EE
:102920000BB030BD00680040C00300200D4808B562
:10293000016841F4001101600068002200F40010F9
:10294000009005210D20FEF7F9FE0D20FEF7E8FEB0
:10295000002205211020FEF7F1FEBDE808401020FE
:10296000FEF7DEBE3038024010B58EB01C220B4997
:102970006846FDF7B8FC0021684601F06CF8084C89
:1029800006491C2220601C3107A8FDF7ACFC002181
:1029900007A801F060F860600EB010BD8C4600081A
:1029A0000000002000B587B014216846FDF7B4FC94
:1029B0001A480021026842F080020260026802F0B8
:1029C00080020592026842F001020260026802F091
:1029D00001020592026842F002020260026802F0FF
:1029E00002020592026842F004020260026802F0EC
:1029F00004020592026842F008020260006800F0DA
:102A0000080005904020CDE90001012002906946B0
:102A10000348FEF7F1FC07B000BD0000303802406B
:102A2000000402401CB500240F4800940D49019495
:102A3000016042F2CF01C0E901141D21C160802173
:102A40008161FFF7CBF908B1FDF7E7FE0094694615
:102A500005480194FFF77AF9002801D0FDF7DDFE63
:102A60001CBD000000140040F40300200C4810B509
:102A70000A4901604FF4E1314160002181600C227C
:102A8000C160C0E904128161C161FFF727FC002821
:102A900003D0BDE81040FDF7C0BE10BD004C0040A3
:102AA0003C0400200C4810B50A4901604FF4612134
:102AB0004160002181600C22C160C0E90412816183
:102AC000C161FFF70BFC002803D0BDE81040FDF703
:102AD000A4BE10BD00500040840400200E4810B574
:102AE0000C4901600D4941604FF480518160002123
:102AF0004FF48062C0E903120422C0E90521C161DC
:102B0000FFF7ECFB002803D0BDE81040FDF785BEC1
:102B100010BD000000440040CC040020A08601004D
:102B20000C4810B50A4901604FF4E13141600021C1
:102B300081600C22C160C0E904128161C161FFF7AC
:102B4000CDFB002803D0BDE81040FDF766BE10BDE8
:102B50000014014014050020FEE7FEE7164900B509
:102B60000B46981DFFF720FE1348991C0830FFF70D
:102B70001BFEB3F906009FED111A00EE100A104873
:102B8000B8EEC00AC0EE010A90ED010A9FED0D1AE1
:102B900030EE600A80ED010AB3F9081000EE101A59
:102BA000F8EEC00A80EE810AD0ED000A30EEC00ACD
:102BB00080ED000A00BD0000540700200000A04284
:102BC000740A00200000C8421249C889401C82B221
:102BD000CA81088A401C80B20882322A01D2322877
:102BE00016D30020C874887408750B4A487588810C
:102BF0009076D076107750770883C881088207488E
:102C000090ED020A81ED010A90ED0A0A81ED000AB9
:102C100070470000740A0020540700200C070020B1
:102C20002DE9F0410024051D484EB0F8847027E0DE
:102C3000285DC0283BD012DCA52829D008DC9028CC
:102C400022D0A02824D0A12822D0A22817D11FE06A
:102C5000B02825D0B12823D0B22810D120E0D12827
:102C600068D006DCC12822D0C22820D0D02806D1C6
:102C700025E0D92852D0E02865D0F02863D0641C24
:102C8000A742D5DCBDE8F08168783070A41CF7E776
:102C9000281950F8011FC6F802108088F0803BE028
:102CA000281950F8011FB1608088B08134E02819DC
:102CB00050F8011FC6F80E10808870822CE0281989
:102CC0004178827801EB022109B200EE101A214905
:102CD000F8EEC00A9FED1E0A80EE801A81ED001A00
:102CE000C278037902EB032212B200EE902AF8EECA
:102CF000E00A80EE801AF2EE040A81ED011A4279B0
:102D0000807902EB002000B200EE100AB8EEC00A93
:102D100080EE201A81ED021AE41DB1E70D48291951
:102D20000C3851F8012FC2604A68026189680D347D
:102D30004161A5E70748291910220C30491CFDF70D
:102D4000D2FA11349CE7641D9AE700001C000020B1
:102D50000000C842F006002000EB400101EBC0017A
:102D6000304800EB810080ED000A30EE600A80ED13
:102D7000010AD0ED050AB4EEE00AF1EE10FA0AD22B
:102D8000F1EE600AB4EEE00AF1EE10FA03DD9FED19
:102D9000260A80ED010AD0ED030A30EE801A80ED9C
:102DA000031AD0ED090AB4EEE01AF1EE10FA01DDD3
:102DB000C0ED030A90ED031AF1EE600AB4EEE01ADA
:102DC000F1EE10FA01D2C0ED030AD0ED060A90ED43
:102DD000071AD0ED031A60EE800A41EE210A90ED49
:102DE000021AD0ED081A30EE411A41EE810AC0ED08
:102DF000040A90ED0A1AF4EEC10AF1EE10FA01DDB0
:102E000080ED041AD0ED041AF1EE410AF4EEE01A56
:102E1000F1EE10FA01D2C0ED040A80ED020A90ED45
:102E2000040A70470C080020000000002DE9F04162
:102E3000384C014620462778D0E903200623A61DFA
:102E40000025072F62D2DFE807F004081A1F272A9F
:102E500031005A295BD1012009E080F88810A529AA
:102E600004D0A62905D0A72951D105E00220207061
:102E70004DE0EAB3904749E00560237047E0A0F8D1
:102E80008410B1700320F2E730F8842F42EA012267
:102E90000280F1700420EAE761800520E7E762889C
:102EA00042EA012161800560A580E6E70368061D0E
:102EB0005F1C0760995590F88810A72907D1016811
:102EC000082904D30821A0F88410904725702069B0
:102ED000B0F884200168914219D390F88800A528A1
:102EE00015D10C490422891D881E00F0A4FB00E0C6
:102EF0000CE02169074804C9001D00F09CFBA08874
:102F00006188884202D1D4E90310884725700020E7
:102F1000BDE8F0813000002070B5044D0446E96042
:102F20008C21FDF7F9F92C6170BD00003000002004
:102F300000B500284CD00188C1F30A022549A2F54A
:102F400080628A8142788378D20842EA4312C2F3CF
:102F50000A02A2F58062CA818278C378920942EAA5
:102F60008302037942EA8322C2F30A02A2F5806255
:102F70000A8202794379520842EAC312C2F30A0272
:102F8000A2F580624A82427992098A754279C2F337
:102F90000112CA75C2880A8002894A8042898A80E1
:102FA000027B8A72427BCA72C089088301F10C00DD
:102FB00000F0CCFF07480E3000F0C8FF0548103085
:102FC00000F0C4FF03485DF804EB123000F0BEBF10
:102FD00000BD000054070020012000F030FDFBE799
:102FE0000B4C00BF00F016F9FDF772FA00F0F6F88E
:102FF000FDF7A6FC00F05AFA00F076FAFDF710FC97
:10300000012000F01CFD606801F0E4F8EAE7000030
:103010000000002010B5502080F31188BFF34F8FBF
:10302000BFF36F8F01F06AFA18B104494FF0805076
:103030000860002080F3118810BD000004ED00E05E
:1030400030B593B030216846FDF766F914210CA81D
:10305000FDF762F91F480025016841F080510160C9
:10306000006800F0805011901B48016841F48041D5
:1030700001600068022400F4804011900920009053
:103080004FF4803001900120CDE9050480050790C0
:10309000192008904FF4A870CDE9090404200B9082
:1030A0006846FEF79BFC08B172B6FEE70CA90F203C
:1030B00081E831004FF4A0500F904FF480501090F1
:1030C00005210CA8FEF77EFB002801D072B6FEE7B2
:1030D00013B030BD40380240007000400248016823
:1030E00041F470010160704788ED00E00148FEF78F
:1030F00002BF0000F40300200148FEF7FCBE000000
:103100001C060020F0B50268294C2A4D2A4E2B4F90
:103110002B4B4FF0804CA04209D0604507D0A8420D
:1031200005D0B04203D0B84201D0984204D122F079
:10313000700E4A6842EA0E02A0421BD0604519D0C8
:10314000A84217D0B04215D0B84213D0984211D03F
:103150001C4DA8420ED01C4DA8420BD01B4DA842BE
:1031600008D01B4DA84205D01A4DA84202D01A4DD6
:10317000A84203D122F44075CA682A434D6922F05F
:1031800080022A4302608A68C2620A688262A042A0
:1031900001D0984201D109690163012141610169AE
:1031A000C90703D0016921F001010161F0BD0000F0
:1031B000000001400004004000080040000C0040F6
:1031C000000401400040014000440140004801402B
:1031D00000180040001C0040002000400148FEF79D
:1031E00049BE0000F403002010B50448FFF719FAA7
:1031F000BDE810400148FEF739BF00003C04002044
:103200000249002008820248FEF730BF740A0020FD
:1032100084040020012202490248FFF797B9000008
:103220000C0000208404002010B5806B0021C185B3
:10323000C184FEF719FF10BD01680C3151E8002F61
:1032400022F4907241E80023002BF5D1016814317B
:1032500051E8002F22F0010241E80023002BF5D1B4
:10326000016B012909D101680C3151E8002F22F0CE
:10327000100241E80023002BF5D1202180F84210F4
:1032800000210163704708B590F84210222901D04F
:10329000022008BD82684FF480539A4201D101692F
:1032A00021B1816A9A421BD04AB10AE00268816A60
:1032B0005268C2F308020A80816A891C08E0026928
:1032C00072B10268526802F07F020A70816A491C7A
:1032D0008162C18D491E0904090CC18503D01BE020
:1032E00002685268F1E70168CA6822F02002CA60E9
:1032F0000168CA6822F48072CA6001684A6922F0D3
:1033000001024A61202180F8421000214163026BD2
:10331000012A03D0FFF728F9002008BD01630168E6
:103320000C3151E8002F22F0100241E80023002B5D
:10333000F5D101680A68D20602D50A684968009189
:10334000818DFEF790FEE7E770B5044600680169DD
:10335000E26821F44051114301612169A068E269EA
:1033600008436169114308432168CA6849F20C6344
:103370009A430243CA6020684169A26921F44071FE
:103380001143416131492068884202D03049884266
:1033900002D1FEF7E1FA01E0FEF7CEFAE26900237E
:1033A000192164253226B2F5004F626828D0A0FBAF
:1033B0000101930F9200FCF765FF0146B0FBF5F0A9
:1033C0006FF01802504301EB800006EB0010B0FBD9
:1033D000F5F000F0F002B1FBF5F002EB0012B1FBEA
:1033E000F5F06FF01803584301EB800006EB001076
:1033F000B0FBF5F000F00F0021681044886070BD4C
:10340000A0FB010192185B41FCF73CFF0146B0FBB9
:10341000F5F00201B1FBF5F06FF01803584301EB32
:10342000800006EBC000B0FBF5F000F0F80002EB06
:103430004002B1FBF5F0584301EB800006EBC00001
:10344000B0FBF5F000F00700D6E7000000100140E7
:103450000014014081628285C285002141642221DD
:1034600080F84210016921B10168CA6842F4807293
:10347000CA6001684A6942F001024A610068C16895
:1034800041F02001C160002070470000054910B5DF
:103490000020C8810448FFF7C4F8BDE81040024886
:1034A000FEF7E4BD740A0020CC0400200C4808B5E7
:1034B00001680A684A680092CA6842F01002CA604D
:1034C00001684A6942F040024A6112210091016894
:1034D000044BC06BA3F11802091DFDF73DF808BDB0
:1034E000CC040020AC0A002038B51F49002308682E
:1034F000026842680092C26842F01002C260086826
:10350000426942F040024261C86B0A68174990F86C
:1035100034500D24121D012D08D0012580F834509F
:1035200090F83550012D02D080F8343038BD022596
:1035300080F83550436503681D6825F480251D60BB
:1035400003685C608368402B036808D09A60026857
:10355000D1600068016841F00101016038BD9960E7
:103560000168CA60F5E700003C0400209D070020C8
:103570000148FEF77BBD000014050020FEE70000B7
:1035800010B502789FED1A0A1A49702A0DD1027BF4
:103590006F2A0FD081ED000A81ED010AB1F90C000C
:1035A00018B1A0F5C242173A03D181ED000A81EDAE
:1035B000010A10BD50F8012F4A6042680A60027A81
:1035C0000A72427A8A720B894A8903EBC30404EBBC
:1035D000031302EB83028A81807A8873D1ED000A9B
:1035E000C1ED040AD1ED010AC1ED050AD6E70000DC
:1035F00000000000780700200907090E002804DBFE
:1036000000F1E02080F80014704700F00F0000F196
:10361000E02080F8141D704702E008C8121F08C19E
:10362000002AFAD170477047002001E001C1121F43
:10363000002AFBD17047F0B50388002541F221072D
:103640000CE04C5D002683EA04235C001B0400D5DB
:103650007C40761C2346082EF7D36D1C9542F0D390
:103660000380F0BD0068016841F400210160014859
:10367000FFF75EBC940A00200068016821F4002175
:1036800001600148FFF754BCAC0A0020024B0ECB8E
:1036900080E80E0000207047F006002002490978FB
:1036A00001700020704700001C0000200A8852BAF8
:1036B00042804A8852BA02808A8852BA82818979C5
:1036C000C181704710B5034C1ECC80E81E0000205D
:1036D00010BD0000FC0600200349D1F80220026062
:1036E000C9888180002070471C00002003498A6837
:1036F0000260898981800020704700001C00002042
:103700000349D1F80E200260498A81800020704769
:103710001C0000201648174B014690ED0C0A80ED66
:10372000000AD0ED010A91F9101070EE600A10EE57
:10373000902A9A4201DD491E05E010EE902A0E4BB8
:103740009A4201D9491C017490F910104FF4B472D7
:1037500011FB02F100EE901AB8EEE01AF0EE400A0A
:1037600071EE200AC0ED020A80ED010A70470000E8
:103770000C07002000003443000034C310B500F0F3
:103780007DF8BDE8104000F001B800002DE9F041DF
:10379000364E374DB6F9180000EE100AB5F90A009A
:1037A000F8EEC00A00EE100A0A20B8EEC00AFFF7D1
:1037B000D3FABDEEC00A2F4C10EE100A24F83C0FCD
:1037C000B6F9300000EE100AB5F90800F8EEC00AAC
:1037D00000EE100A0B20B8EEC00AFFF7BDFABDEEEE
:1037E000C00A002610EE100A60802248A680E680FB
:1037F0003C30A97C804600F0C9F8E97C404600F0E6
:10380000C5F84FF400714046FCF7CAFD1A4F2680F8
:1038100095ED000AD7ED0A0A0020FFF79DFAB7F9E7
:103820001C100A2291FBF2F1BDEEC00A10EE100A44
:1038300000EE101A00B2F8EEC00A00EE100A0120E5
:10384000B8EEC00AFFF788FABDEEC00A10EE100A03
:103850006080A680E680E97C404600F097F840460C
:10386000BDE8F04140F2FF11FCF79ABDAC07002023
:10387000740A0020080300200C0700202DE9F04105
:10388000334C344D0220D4ED020A95ED010AFFF7C6
:1038900063FAB4F91E100A2291FBF2F1BDEEC00AE0
:1038A00010EE100A00EE101A00B2F8EEC00A00EE98
:1038B000100A0320B8EEC00AFFF74EFABDEEC00AA8
:1038C000254C10EE100A24F8800F00206080A080A4
:1038D000E0802148E97C8030074600F057F840F24C
:1038E000FF113846FCF794FD1C4EB0892080F0890A
:1038F0006080308AA080708AE080E97C384600F0E1
:1039000045F840F201113846FCF782FD287B207211
:10391000687D6072308B010AA172E072287E20738C
:10392000A97F6173F17DA173803CC00701D0B07A9B
:1039300000E0B07D84F88F00E97C384600F026F87E
:10394000BDE8F04104484FF481718830FCF792BD26
:103950000C070020740A00200803002054070020F0
:1039600010B5FEF73FFFFFF72FF96FF00E0128208B
:1039700000F09CF840210348FDF736FE02498877A5
:1039800010BD000000040240740A0020002903D189
:10399000018041808180C180704710B5FFF7BAFE79
:1039A000FFF7DEFFBDE81040FFF7E8BE10B50C489A
:1039B000FFF792FE0A48801DFFF798FE08480C307A
:1039C000FFF79EFE06481430FFF760FE04482030E3
:1039D000FFF778FE0248BDE81040801EFFF75EBE8C
:1039E0002007002010B503490348FFF795FA00208F
:1039F00010BD0000212C000864060020FDF70EFE1B
:103A0000FFF71EFBFEF7CEFFFEF790FFFEF72EFF3F
:103A1000FEF75CFFFFF706F8FFF760F8FFF726F800
:103A2000FFF77EF8FFF73EF8FEF79EFF00F00EF876
:103A3000FEE701460020842900D0C81C704710B55D
:103A400000B9012000F0A0FB002010BD10B500F06F
:103A500017FC002010BD7FB50D4604464169B0F942
:103A6000080081B1A16971B1FFF7E3FFD4E9051244
:103A70008DE80700D4E900102B46226900F013FD01
:103A8000039004B070BDFFF7D4FF03A9CDE9000196
:103A9000208A2B4682B2D4E9001000F0D7FC01281E
:103AA00001D00020EDE70398EBE7000000EE100ADC
:103AB000104AB8EEC00AD2ED000AF4EEC00AF1EEE8
:103AC00010FA05DD00EE100AB8EEC00A82ED000A19
:103AD00000EE101AD2ED000AB8EEC00AF4EEC00AE9
:103AE000F1EE10FA05D200EE101AB8EEC00A82ED1F
:103AF000000A7047740A00202DE9F041184C0F4667
:103B00000546E6682068001D00F076FA38B920689E
:103B100090F82C1001208840216981432161681CA4
:103B200007D137B12168BDE8F0410E48091D00F00A
:103B3000A7BA20683544B5424560216805D2A06B1C
:103B4000BDE8F041091D00F083BA606B091D00F06B
:103B50007FFAA06A854200D2A562BDE8F08100002C
:103B60004C000020A00B00202DE9F041054600F09C
:103B700093FA2E4CA068401CA06020682C4F10B116
:103B8000606940B32DE02560A068012829D1002696
:103B900006EB860007EB800000F04CFA761C072E3F
:103BA000F6D323488C3000F045FA2148A03000F0CD
:103BB00041FA1F48B43000F03DFA1D48C83000F00B
:103BC00039FA1B48DC3000F035FA19488C30606354
:103BD0001430A06305E02068E96AC06A884200D812
:103BE0002560606A401C6062E96A012022698840A1
:103BF0001043206101EB810007EB8000291D00F0DC
:103C00003FFA00F069FA606900280CD02068E96A80
:103C1000C06A884207D207494FF080500860BFF35E
:103C20004F8FBFF36F8FBDE8F08100004C00002084
:103C3000C40A002004ED00E010B5044690F85100DD
:103C400058B101280CD002280FD0502080F31188E1
:103C5000BFF34F8FBFF36F8FFEE7206B00F050FA7A
:103C60002046BDE8104000F04BBA10BD10484FF49C
:103C70007051420706D0C01D0D4920F00700411ABF
:103C8000C1F570510B4A00230144C2E90003083911
:103C9000183A21F0070111604B600B600B1AC0E964
:103CA000001393604FF00040536050617047000074
:103CB000B40B0020A0000020144E154CA6F1C8073C
:103CC0004FF08058DFF84C9012E000BF00F0E4F9AC
:103CD000F068C568281D00F08FF9A068401EA0603C
:103CE0006068401E606000F0F7F92846FFF7A4FF07
:103CF00060680028EAD138680128F9D9C9F800803D
:103D0000BFF34F8FBFF36F8FF2E700008C0B0020E3
:103D10004C00002004ED00E02DE9F0479A46DDE973
:103D2000098481466FF00303206B03EB8202104489
:103D3000089E20F00707780707D0502080F31188ED
:103D4000BFF34F8FBFF36F8FFEE7002561B10020F7
:103D500023180A5C83F834200A5C12B1401C102836
:103D6000F6D384F8435001E084F83450072E00D392
:103D70000626E662C4E91165201D00F066F904F12B
:103D8000180000F062F92461C6F107006462A061C6
:103D9000E56484F8505052464946384600F0C0F871
:103DA0002060B8F1000F01D0C8F80040BDE8F087EE
:103DB00030B5114900E011460A688242FBD34B68D6
:103DC0005C18844203D14068184448600846436840
:103DD0001C18944209D1084C183C2468A24209D00E
:103DE00052681A4442600A6812680260814200D038
:103DF000086030BD0460F9E7A00000200648416B70
:103E0000096829B1416BC968C9684968816270470E
:103E10004FF0FF31FAE700004C00002008484068EE
:103E2000401C4FF0500080F3118804D0BFF34F8F37
:103E3000BFF36F8FFEE7BFF34F8FBFF36F8FFEE7C8
:103E4000A80000202DE9F0410546002700F04EFAB9
:103E5000324E306808B9FFF709FF706905424ED14C
:103E6000C5B3083568070ED005F00700C0F108009B
:103E70000544680707D0502080F31188BFF34F8FA7
:103E8000BFF36F8FFEE72DB37068854237D82348A4
:103E9000183001460C6801E020460C466168A942D2
:103EA00002D221680029F7D131688C4227D00768F7
:103EB0002168016060680837411B10290FD960191B
:103EC000420708D0502080F31188BFF34F8FBFF313
:103ED0006F8FFEE713E041606560FFF769FF61687F
:103EE0007068401A7060B268904200D2B060706929
:103EF00001430020C4E90001F068401CF06000F0BC
:103F000063FB780707D0502080F31188BFF34F8FF1
:103F1000BFF36F8FFEE73846BDE8F08188000020D0
:103F200010B5031F4FF080741C601B1F21F00101AE
:103F30001960191F044B0B6014390A60091F6FF0D8
:103F4000020244380A6010BD1D3E0008B0F900109E
:103F50000931132901D200210180704738B5044688
:103F600000680168406800901F4884421BD1E06BE4
:103F70000068016821F001010160E06B01684A6896
:103F8000062A06D10968090301D5416C00E0C16B1E
:103F90008847E16B182009684860E06B0068016899
:103FA00041F001010160114884421BD1E06B0068BF
:103FB000016821F001010160E06B016849680C4A69
:103FC000116000684068062802D10A48FFF7D8FA55
:103FD000E16B132009684860E06B0068016841F0FC
:103FE0000101016038BD0000CC0400203C04002029
:103FF000440000209D070020D0E9013201699A6049
:10400000D0E901235A604A68824201D182684A603D
:10401000002202610868401E0860086870470000BE
:10402000034B036003F15400086080201060704768
:10403000B400002000F108014FF0FF32C0E9011286
:10404000C16001610021016070470021016170477A
:1040500030B50B685A1C02D000F1080202E0026978
:1040600004E02246546825689D42FAD953684B60A3
:1040700099608A60516008610168491C016030BD27
:1040800042684A6093688B609368596091600861E8
:104090000168491C01607047502080F31188BFF30C
:1040A0004F8FBFF36F8F0A494868401C4860012852
:1040B0000CD10848006810F0FF0F07D0502080F3A3
:1040C0001188BFF34F8FBFF36F8FFEE7704700007B
:1040D000A800002004ED00E00849486828B1401E0F
:1040E000486001D180F311887047502080F3118817
:1040F000BFF34F8FBFF36F8FFEE70000A8000020D3
:1041000070B500282AD0164DA0F1080460686969CE
:10411000084207D1502080F31188BFF34F8FBFF3BF
:104120006F8FFEE722683AB1502080F31188BFF309
:104130004F8FBFF36F8FFEE78843606000F0D6F8C3
:1041400060686968084468602046FFF731FE2869A6
:10415000401C2861BDE8704000F036BA70BD000018
:10416000880000204FF0E0200021016181610549B5
:104170004FF47A720968B1FBF2F1491E41610721DF
:10418000016170474800002010B5020014D00F48AC
:10419000006B38B1502080F31188BFF34F8FBFF30D
:1041A0006F8FFEE700F0A2F800211046FFF7A4FC95
:1041B00000F00AFA002807D105494FF08050086046
:1041C000BFF34F8FBFF36F8F10BD00004C00002076
:1041D00004ED00E070B50546FFF75EFF254C05B91C
:1041E0002568281DFFF708FF58B9E86A224A00EB46
:1041F000800152F8211021B90121814020698843B2
:104200002061A86A18B105F11800FFF7F5FE606A91
:10421000401C60622068854208D11748291DC830BB
:10422000FFF72EFF6068401C606007E0A068401E3A
:10423000A0602846FFF700FDFFF7E0FDFFF74CFF09
:104240006069002814D02068854211D1206B38B1F4
:10425000502080F31188BFF34F8FBFF36F8FFEE7BD
:1042600006494FF080500860BFF34F8FBFF36F8F48
:1042700070BD00004C000020C40A002004ED00E0E6
:1042800010B586B00024039405AA04A903A80494D9
:10429000FFF7C6FEDDE903010094CDE9011000231C
:1042A0000EA11048059A00F0FEF80F490028C862D8
:1042B00011D0502080F31188BFF34F8FBFF36F8F61
:1042C0004FF0FF30886201204861CC6006B0BDE845
:1042D000104000F041B806B010BD000049444C4504
:1042E00000000000B93C00084C0000200248016BAF
:1042F000491C0163704700004C0000201448016B0A
:1043000011B10121C16170470021C1610169B1FA98
:1043100081F1C1F11F0101EB81020E4951F82230F8
:104320006BB101EB820101F108034A6852684A60EF
:104330009A4201D152684A60D168016070475020AA
:1043400080F31188BFF34F8FBFF36F8FFEE700003C
:104350004C000020C40A00201CB537480168374AC9
:10436000914207D1502080F31188BFF34F8FBFF3E4
:104370006F8FFEE700683149491E884207D15020FF
:1043800080F31188BFF34F8FBFF36F8FFEE72C4987
:1043900008780190FF20087008788DF800009DF8DB
:1043A00000009DF8002000F0F000904207D050205F
:1043B00080F31188BFF34F8FBFF36F8FFEE79DF837
:1043C0000000204C00F0500020700720A06005E0A5
:1043D0009DF8002052008DF80020401E9DF800201E
:1043E0001206F5D4A060032807D0502080F311886E
:1043F000BFF34F8FBFF36F8FFEE74FF44070A060A5
:10440000019808700C482030016841F47001016087
:10441000016841F070410160FFF7A4FE0020606078
:10442000FBF7E2FE0848016841F040410160FBF7FC
:10443000C7FE00201CBD000000ED00E071C20F416E
:1044400000E400E0A800002034EF00E02DE9FF5F69
:104450008346DDE90E87994616468A469000FFF7A7
:10446000F1FC05001CD05420FFF7ECFC040014D034
:104470000020256384F85100CDE90240CDE9008792
:104480004B46324651465846FFF746FC2046FFF75A
:104490006BFB012004B0BDE8F09F2846FFF730FE1B
:1044A0004FF0FF30F6E7F0B585B0DDE90B640A9D0B
:1044B000A6B1DCB1542700972663022684F8516028
:1044C000002604AFCDE90246CDE90057FFF724FCF2
:1044D0002046FFF749FB049805B0F0BD502080F35B
:1044E0001188BFF34F8FBFF36F8FFEE7502080F32B
:1044F0001188BFF34F8FBFF36F8FFEE72DE9F041B7
:104500002F4C0026206B28B1A069401CA0613046CA
:10451000BDE8F081E5686D1CE56013D1606B006853
:1045200038B1502080F31188BFF34F8FBFF36F8FE6
:10453000FEE7606BA16B6163A063206A401C206290
:10454000FFF75CFCA06ADFF87C80854209D3606BD2
:104550000068A0B1606BC068C7687868854211D2F6
:10456000A0622068C06A00EB800158F82100012891
:1045700000D90126E0690028C9D00126C7E74FF01D
:10458000FF30EDE7381DFFF737FDB86A18B107F1C6
:104590001800FFF731FDF96A0120226988401043B5
:1045A000206101EB810108EB8100391DFFF768FDF7
:1045B000F86A2168C96A8842C9D30126C7E70000A2
:1045C0004C000020C40A00202DE9F0472C4D0024A7
:1045D0002746286B38B1FFF75FFD286B401E286324
:1045E000286B40B146E0502080F31188BFF34F8F15
:1045F000BFF36F8FFEE7A968224E0120D1B3A6F169
:10460000B40980463068E8B1F068C46804F1180065
:10461000FFF7F2FC201DFFF7EFFCE06A2A6908FAB9
:1046200000F11143296100EB800109EB8100211D9C
:10463000FFF726FDE06A2968C96A8842E2D3C5F817
:104640001C80DFE70CB1FFF7D9FBAC6944B14646EB
:10465000FFF754FF00B1EE61641EF9D10020A8619C
:10466000E86938B10849012738070860BFF34F8F60
:10467000BFF36F8FFFF730FD3846BDE8F0870000CD
:104680004C000020780B002004ED00E0F446000808
:10469000D92F00080000000000000000800000008A
:1046A0000000000000000000E4460008E12F0008C0
:1046B000FDFF00000000000080000000000000007E
:1046C0000000000000061016000610160000000092
:1046D00000000000010203040607080900000000B2
:1046E00001020304496E697969616C697A615461F8
:1046F000736B000064656661756C745461736B0064
:104700002047000800000020B40000001836000810
:10471000D4470008B4000020044B000028360008ED
:104720000000000000000000000000000000000089
:104730000100000010000000000000000000000068
:104740000000000000000000000000000000000069
:104750000000000000005AA500000000000000005A
:1047600000000000000000000024F4000000000031
:104770000000000000000000000000000000000039
:104780000000000000000000000000000000000029
:104790000000000000000000000000000000000019
:1047A0000000000000000000000000000000000009
:1047B00000000000000000000000000000000000F9
:1047C000000000000000000000000000AAAAAAAA41
:0447D00000000000E5
:040000050800018965
:00000001FF
